:100000000C948D000C94C5000C94AA000C94AA00CA
:100010000C94AA000C94AA000C94AA000C94AA00B8
:100020000C94AA000C94AA000C94AA000C94AA00A8
:100030000C94AA000C94AA000C94AA000C94AA0098
:100040000C94AA000C94AA000C94AA000C94AA0088
:100050000C94AA000C94AA000C94AA000C94AA0078
:100060000C94AA000C94AA0004030904260372004D
:100070006500740072006F006E0069006300640028
:1000800065007300690067006E002E0063006F005A
:100090006D002A035600650063007400720065005D
:1000A0007800200041006400610070007400650069
:1000B00072002000760033002E003300120101018F
:1000C00000000008100801E5060101020001050119
:1000D0000905A101A100050109300931150026FF1C
:1000E00000950275088102050919012904150025EA
:1000F000019508750181020900150026FF007508A9
:100100009501B20201C0C0120101010000000810F7
:100110000801E50601010200010011241FBECFEF16
:10012000D8E0DEBFCDBF12E0A0E0B1E0E6E7F6E147
:1001300002C005900D92AE33B107D9F712E0AEE3DD
:10014000B2E001C01D92AC39B107E1F70E94D108BD
:100150000C94390B0C940000A82FB92F80E090E08C
:1001600041E050EA609530E009C02D9182279795D3
:10017000879510F084279527305EC8F36F5FA8F34A
:100180000895EADF8D939D930895CF93CFB7CF93D2
:10019000C395489BE9F7489B09C0489B07C0489B0B
:1001A00005C0489B03C0489B01C0A3C0DF93C0911A
:1001B0007702DD27C258DD4F489B02C0DF91EBCFAD
:1001C0002F930F931F9309B12FEF00FB20F94F934B
:1001D0003F9319B14FEF012700FB21F93BE031C0FC
:1001E0004E7F012F19B1216028C0102F4D7F226052
:1001F000000009B129C04B7F2460012F000019B114
:100200002BC019B1477F28602AC04F7E09B12061F9
:100210002CC04F7D19B120622FC04F7B09B12064E3
:1002200032C0422709B149934FEF0000102710FB5D
:1002300020F919B11570C9F1297F91F2012700FB4E
:1002400021F909B1237F89F2315058F1102710FBB1
:1002500022F919B1277E79F2012700FB23F92F7CBF
:1002600081F209B1102710FB24F92F7971F200C037
:1002700019B1012700FB25F92F7359F200C009B10C
:10028000102710FB26F9223040F200C019B10127D7
:1002900000FB27F9243028F64F77206819B10000B9
:1002A000F9CF11E01CBB002719C03B503195C31B8F
:1002B000D04011E01CBB0881033CF9F00B34E9F09D
:1002C000209175021981110F1213EDCF4A81441F3D
:1002D000093641F10D3211F0013E29F700937C02FD
:1002E0003F914F911F910F912F91DF91CCB3C0FDA2
:1002F0004FCFCF91CFBFCF91189520917C02222371
:1003000079F310917A02112369F534306AF1309350
:100310007A0220937602109177023BE0311B3093F2
:10032000770222C000917A020130E4F40AE54F70AE
:1003300049F43091080234FD19C000930802CEE55B
:10034000D2E018C03091690234FD10C000936902F8
:10035000CAE6D2E00FC02795A8F45150A9F4220FA5
:100360000000F9CF4AE503C042ED01C0432FC4E1CC
:10037000D0E032E01AB11560589A1AB90BB120E4F6
:1003800015E05F93012756E00BB9279520F45150F3
:1003900021F4220FF9CF012756E000003B5A0BB998
:1003A000D0F2279528F4515029F4220F0000F9CFFC
:1003B000012756E027950BB920F4515021F4220F64
:1003C000F9CF012756E0299133230BB921F60A7F93
:1003D00010917B02110FC651D0400BB911F0109350
:1003E000750211E01CBB01601AB11A7F402F4A7FD1
:1003F0005F9100C000C00BB91AB94BB971CFA0E032
:10040000B0E0E5E0F2E00C94020BDC012B01FA0114
:100410009C91923008F439C1EB018881823008F454
:1004200033C1943069F4843009F02FC111969C9146
:1004300011978981981709F428C1A0E0B1E025C17E
:10044000843009F421C18230A9F4923009F01DC131
:100450009A01AD0188E0EA010990AE01E901099233
:100460009E018150C1F7E201898111969C918923F7
:10047000818308C1923009F407C112962D903C90F7
:100480001397EB018A819B811496AD90BD90CD901E
:10049000DC901797EC80FD800E811F819101281B55
:1004A000390BB90137FF04C066277727621B730B2E
:1004B000603271050CF061C0121613066CF537013D
:1004C0004801062E04C096948794779467940A9402
:1004D000D2F721E030E040E050E004C0220F331FAB
:1004E000441F551F6A95D2F721503040404050407C
:1004F0002E213F214023512321153105410551056E
:1005000021F021E030E040E050E079018A01E62866
:10051000F728082919293CC0232BD1F1260E371EB4
:1005200035014601062E04C096948794779467940B
:100530000A94D2F721E030E040E050E004C0220FFE
:10054000331F441F551F6A95D2F721503040404059
:1005500050402A213B214C215D21211531054105C7
:10056000510521F021E030E040E050E059016A01FE
:10057000A628B728C828D9280BC0821593052CF0C7
:100580001C01AA24BB24650103C0EE24FF248701BB
:1005900011969C91D20111968C91981709F445C03F
:1005A000992339F0A80197012A193B094C095D09E3
:1005B00006C0A60195012E193F09400B510B57FDAE
:1005C00008C0118233822282248335834683578375
:1005D0001DC081E081833382228288279927DC0134
:1005E000821B930BA40BB50B84839583A683B783DF
:1005F0000DC0220F331F441F551F248335834683AC
:1006000057838281938101979383828324813581EB
:1006100046815781DA01C9010197A109B1098F5FAC
:100620009F4FAF4FBF4328F30BC091833382228289
:10063000EA0CFB1C0C1D1D1DE482F582068317834A
:1006400083E08083248135814681578157FF1AC01A
:10065000C901AA2797FDA095BA2F81709070A0704C
:10066000B0705695479537952795822B932BA42BE1
:10067000B52B84839583A683B7838281938101966A
:1006800093838283DF0101C0D201CD01CDB7DEB7F4
:10069000E2E10C941E0BA0E2B0E0E1E5F3E00C9483
:1006A0000E0B69837A838B839C832D833E834F83D8
:1006B0005887E9E0EE2EF12CEC0EFD1ECE010196DE
:1006C000B7010E9479068E010F5E1F4FCE0105967D
:1006D000B8010E9479068A8991E089278A8BC7012F
:1006E000B801AE01475E5F4F0E94FF010E94A40562
:1006F000A096E6E00C942A0BA0E2B0E0E2E8F3E07A
:100700000C940E0B69837A838B839C832D833E83A9
:100710004F835887F9E0EF2EF12CEC0EFD1ECE0131
:100720000196B7010E9479068E010F5E1F4FCE0120
:100730000596B8010E947906C701B801AE01475E6F
:100740005F4F0E94FF010E94A405A096E6E00C9472
:100750002A0BA0E2B0E0EFEAF3E00C94020B69830D
:100760007A838B839C832D833E834F835887CE016E
:100770000196BE01675F7F4F0E947906CE01059604
:10078000BE016F5E7F4F0E9479069985923088F096
:1007900089898230C8F0943019F4823051F404C051
:1007A000843029F4923081F480E091E0C6C0923028
:1007B00049F420E09A858A89981321E02A87CE019E
:1007C0000996BBC0823049F420E09A858A89981343
:1007D00021E02A8BCE014196B0C02D843E844F8407
:1007E00058886D887E888F88988CEE24FF24870136
:1007F000AA24BB24650140E050E060E070E0E0E046
:10080000F0E0C10181709070892BE9F0E60CF71CD3
:10081000081D191D9A01AB012A0D3B1D4C1D5D1DC4
:1008200080E090E0A0E0B0E0E614F70408051905C8
:1008300020F481E090E0A0E0B0E0BA01A901480F07
:10084000591F6A1F7B1FAA0CBB1CCC1CDD1C97FE0A
:1008500008C081E090E0A0E0B0E0A82AB92ACA2A46
:10086000DB2A3196E032F10549F0660C771C881CD2
:10087000991C5694479437942794C3CFFA85EA89F4
:100880002B893C898B859C85280F391F2E5F3F4F14
:1008900017C0CA0181709070892B61F01695079579
:1008A000F794E79480E090E0A0E0B0E8E82AF92A25
:1008B0000A2B1B2B76956795579547952F5F3F4FD2
:1008C00077FDE7CF0CC0440F551F661F771F17FD3C
:1008D0004160EE0CFF1C001F111F215030404030C2
:1008E00090E0590790E0690790E4790760F32B8F57
:1008F0003C8FDB01CA018F779070A070B07080349C
:100900009105A105B10561F447FD0AC0E114F104A8
:100910000105110529F0405C5F4F6F4F7F4F407814
:100920001A8EFE1711F081E08A8F4D8F5E8F6F8FC8
:1009300078A383E0898FCE0149960E94A405A096F2
:10094000E2E10C941E0BA8E0B0E0E9EAF4E00C94BC
:100950000B0B9B01AC0183E08983DA01C901882775
:10096000B7FD83959927AA27BB27B82E21153105F6
:100970004105510519F482E089833AC08823A9F022
:10098000203080E0380780E0480780E8580729F4E5
:1009900060E070E080E09FEC30C0EE24FF2487012F
:1009A000E21AF30A040B150B02C079018A018EE1E9
:1009B000C82ED12CDC82CB82ED82FE820F83188779
:1009C000C801B7010E94550501971816190684F44D
:1009D000082E04C0EE0CFF1C001F111F0A94D2F752
:1009E000ED82FE820F831887C81AD90ADC82CB8277
:1009F000BA82CE0101960E94A4052896E9E00C94E3
:100A0000270BACE0B0E0E7E0F5E00C94120B698353
:100A10007A838B839C83CE010196BE016B5F7F4FEF
:100A20000E9479068D81823061F1823050F18430EC
:100A300021F48E81882351F12EC02F81388537FD16
:100A400020C06E812F3131051CF06623F9F023C0E0
:100A50008EE190E0821B930B29853A854B855C855E
:100A600004C056954795379527958A95D2F7662302
:100A7000B1F050954095309521953F4F4F4F5F4FC6
:100A80000EC020E030E040E050E009C02FEF3FEF23
:100A90004FEF5FE704C020E030E040E050E8B901EC
:100AA000CA012C96E2E00C942E0BEF92FF920F936A
:100AB0001F937B018C0180E0E81680E0F80681E05E
:100AC000080780E0180788F48FEFE816F1040105A5
:100AD000110531F028F088E090E0A0E0B0E017C008
:100AE00080E090E0A0E0B0E012C080E0E81680E096
:100AF000F80680E0080781E0180728F088E190E018
:100B0000A0E0B0E004C080E190E0A0E0B0E020E22E
:100B100030E040E050E0281B390B4A0B5B0B04C06F
:100B200016950795F794E7948A95D2F7F701E85F51
:100B3000FE4F8081281B310941095109C9011F91CC
:100B40000F91FF90EF900895DF92EF92FF920F9335
:100B50001F93FC01E480F58006811781D18080819C
:100B6000823048F480E090E0A0E1B0E0E82AF92A81
:100B70000A2B1B2BA5C0843009F49FC0823021F4BE
:100B8000EE24FF24870105C0E114F10401051105DD
:100B900019F4E0E0F0E096C0628173819FEF623863
:100BA00079070CF05BC022E83FEF261B370B2A3198
:100BB00031052CF020E030E040E050E02AC0B801E0
:100BC000A701022E04C076956795579547950A941C
:100BD000D2F781E090E0A0E0B0E004C0880F991F58
:100BE000AA1FBB1F2A95D2F70197A109B1098E212F
:100BF0009F21A023B1230097A105B10521F081E039
:100C000090E0A0E0B0E09A01AB01282B392B4A2BF1
:100C10005B2BDA01C9018F779070A070B0708034BF
:100C20009105A105B10539F427FF09C0205C3F4FAC
:100C30004F4F5F4F04C0215C3F4F4F4F5F4FE0E08D
:100C4000F0E02030A0E03A07A0E04A07A0E45A070D
:100C500010F0E1E0F0E079018A0127C06038710509
:100C600064F5FB01E158FF4FD801C7018F77907001
:100C7000A070B07080349105A105B10539F4E7FE8C
:100C80000DC080E490E0A0E0B0E004C08FE390E00D
:100C9000A0E0B0E0E80EF91E0A1F1B1F17FF05C0F9
:100CA00016950795F794E794319687E01695079582
:100CB000F794E7948A95D1F705C0EE24FF248701C5
:100CC000EFEFF0E06E2F679566276795902F9F777F
:100CD000D794DD24D7948E2F8695492F462B582FF5
:100CE0005D29B701CA011F910F91FF90EF90DF902E
:100CF0000895FC01DB01408151812281622F6F77D1
:100D000070E0221F2227221F9381892F880F822BB8
:100D1000282F30E0991F9927991F11969C931197BE
:100D200021153105A9F5411551056105710511F42C
:100D300082E037C082E89FEF13969C938E931297C0
:100D40009A01AB0167E0220F331F441F551F6A95BC
:100D5000D1F783E08C930DC0220F331F441F551F22
:100D600012968D919C911397019713969C938E9355
:100D70001297203080E0380780E0480780E4580769
:100D800058F314962D933D934D935C9317970895C4
:100D90002F3F310579F4411551056105710519F4AD
:100DA00084E08C93089564FF03C081E08C9312C0AB
:100DB0001C9210C02F57304013963C932E931297DD
:100DC00083E08C9387E0440F551F661F771F8A9539
:100DD000D1F7706414964D935D936D937C93179740
:100DE0000895E9E6F0E0808182608083E89A8BE4F0
:100DF00080936A028AE58093690208951F93CF93D6
:100E0000DF9360917A02635067FDBBC080917702E7
:100E1000CCE0D0E0C81BD109C258DD4F80917602EA
:100E20008D3209F09BC0683009F0A9C083EC809333
:100E30005E028AE58093080210923E0288818076E5
:100E400029F0CE010E947008282F75C09A81109257
:100E500067028981882321F41092680222E064C02D
:100E6000853019F490937B025EC0863009F047C04C
:100E70008B818130C9F1823031F4CE010E94420869
:100E8000282F80E039C0833011F58A81882349F406
:100E900088E690E0909379028093780280E424E0E1
:100EA0002BC0813049F48CE690E0909379028093D6
:100EB000780280E426E220C08230E1F482E990E00A
:100EC000909379028093780280E42AE215C08132FF
:100ED00049F481E592E0909379028093780280E46E
:100EE00029E00AC0823231F4CE010E944208282F44
:100EF00080E402C080E420E080933E021CC0883081
:100F000021F421E08DE792E011C0893019F490932B
:100F10007D0209C08A3011F421E006C08B3019F43B
:100F20008BE480936A0220E087E692E09093790256
:100F30008093780209C02F3F39F4888187FD2E8184
:100F400080E880933E0206C08F81882319F48E8149
:100F5000821708F0822F8093090211C080913E020F
:100F600087FF0DC0CE010E94C8088F3F21F48EE19B
:100F70008093080204C0882311F010920902109295
:100F80007A028091080284FF4AC0809109028F3F53
:100F900009F445C0182F893008F018E0811B8093B0
:100FA000090280915E0298E8892780935E021123EE
:100FB00041F1209178023091790280913E0286FFC2
:100FC0000DC0AFE5B2E080E090E0F901E80FF91F55
:100FD000E491ED9301961817C1F708C0912FD9013C
:100FE000EFE5F2E08D9181939150E1F71150812F5F
:100FF00090E01F5F0196820F931F90937902809378
:1010000078028FE592E0612F0E94C100612F6C5F32
:101010006C3019F08FEF809309026093080294E11D
:1010200089B1857031F49150D9F710927B021092FA
:101030007502DF91CF911F9108951F93DC01162F48
:101040008091690284FF07C080916A0298E889272D
:1010500080936A0203C08AE580936902912FEBE6D0
:10106000F2E08D9181939150E1F78BE692E0612F50
:101070000E94C1001C5F109369021F91089582E1D4
:1010800090E00895FC018081807641F58181863071
:1010900029F583818230D1F0823269F08130F1F418
:1010A0008091430290914402909379028093780258
:1010B0008091450208958091400290914102909361
:1010C0007902809378028091420208958AE092E04A
:1010D000909379028093780282E2089580E00895E7
:1010E000DC0126E532E030937902209378028C917E
:1010F0008076803209F04AC011968C911197823027
:10110000C9F0833020F4813009F040C007C0893035
:1011100019F08A30D9F51EC08FEF0895E09146028C
:10112000F09147020088F189E02DC90112966C9177
:101130000995089512969C91892F8150883030F539
:10114000892F90E0835B9D4F909379028093780282
:1011500081E008951296EC911297EE2359F4EEE493
:10116000F2E013968C911397819382E0E635F807AD
:10117000C1F70CC08E2F8150883040F4F0E0E35B63
:10118000FD4F13968C91808380E0089580E0089550
:10119000FC0180818A3519F481E080939402862FC6
:1011A0000895CDB7DEB72897DEBFCDBF1092940269
:1011B00088E0FE013196DF01982F1D929A95E9F79C
:1011C000EEE4F2E0DF011D928A95E9F70E94BE0A83
:1011D000FC0190934702809346028481958190930D
:1011E00041028093400282818093420280859185F2
:1011F000009731F09093440280934302868108C0A7
:101200008CEB90E090934402809343020E943F084D
:101210008093450280914202809323022FE088E16F
:1012200090E00FB6F894A895809360000FBE2093CD
:10123000600084B1807E84B985B18F6085B92C98B7
:10124000259A2D9A87B1857E87B987B1856087B940
:1012500088B1807E88B98AB1806C8AB98BB18F736E
:101260008BB98AB185608AB980E395E70197F1F778
:101270008AB18A7F8AB914BC85E085BD82E08093FB
:10128000B00087E08093B10086E08093B30083B71D
:10129000817F83BFE0914602F09147020284F3858B
:1012A000E02D09950E94F1067894FF2411E088242E
:1012B00083945E010894A11CB11C91E0C92ED12C2D
:1012C00082E0982E02C0FF2410E0A895809194023D
:1012D000882359F0F8948FEE9EEB90933C01809315
:1012E0003B018AB185608AB9FFCF0E94FE061123B7
:1012F00041F0E0914602F09147020484F585E02D2B
:101300000995A89B27C085BA409146025091470293
:10131000D50120E030E018C0F901E25BFD4FE0812B
:10132000EE2379F08C91853018F085508C9309C0AC
:10133000EC93C601022E02C0880F991F0A94E2F7AF
:10134000F82A2F5F3F4F1196FA018081918128176B
:10135000390714F3B99B27C097BAE0914602F09180
:1013600047020484F585E02D099500E010E012C0E5
:101370000684F785E02D802F8F5F0995882341F043
:10138000C601002E02C0880F991F0A94E2F7F82ABE
:101390000F5F1F4FE0914602F091470280819181DB
:1013A000081719072CF3FF2009F48ECF00E010E096
:1013B000EF2CFF2424C0C701002E02C0959587950D
:1013C0000A94E2F780FF19C08091690284FF15C07A
:1013D000602F6F5F0088F189E02D88E492E0099525
:1013E000682F88E492E00E941D0803C00E94FE0658
:1013F000A8958091690284FFF9CF0F5F1F4FE0919C
:101400004602F091470280819181081719079CF2EA
:101410005ACF84B1807E84B985B18F6085B92C980C
:10142000259A2D9A87B1857E87B987B1856087B95E
:1014300088B1807E88B98AB1806C8AB98BB18F738C
:101440008BB910929A0280919A0280939602109220
:101450009B0280919B028093970210925D021092F2
:101460005C02ECE7F0E0808180668083EAE7F0E0F0
:1014700080818068808380818061808380E008959E
:1014800090915C0280915D02981771F490919602A0
:1014900080919A02981741F49091970280919B0253
:1014A00020E030E0981711F021E030E0822F08951D
:1014B0001F93CF93DF93EC0160919A0210919B02EE
:1014C000009709F44AC070E06F577040882777FD95
:1014D0008095982F0E94A30423E333E343EB5FE35B
:1014E0000E94A90320E030E04EEF52E40E947C030A
:1014F0000E940105CB0177FF02C080E090E08F3FA2
:10150000910519F014F08FEF90E0888360E870E0A7
:10151000611B7109882777FD8095982F0E94A3048D
:1015200023E333E343EB5FE30E94A90320E030E0D1
:101530004EEF52E40E947C030E940105CB0177FF2D
:1015400002C080E090E08F3F910519F014F08FEF1A
:1015500090E0898380915C028A8380915C02809311
:101560005D0280919A028093960280919B02809303
:10157000970283E0DF91CF911F9108958EEC90E068
:10158000909331028093300287E091E0909335028E
:10159000809334028CE292E00895FC0181E0809314
:1015A0009502F0939902E0939802309711F483E644
:1015B00001C084E680937C008CE291E00197F1F712
:1015C00080917A00806480937A0080917A0084FF11
:1015D000FCCF80917A00806180937A0080917900BD
:1015E000E656FD4F8083089583B18F708095809378
:1015F0005C0280E090E00E94CD0A81E090E00E94D1
:10160000CD0A08952F923F924F925F926F927F92F0
:101610008F929F92AF92BF92CF92DF92EF92FF9202
:101620000F931F93CF93DF93CDB7DEB7CA1BDB0BAE
:101630000FB6F894DEBF0FBECDBF09942A88398853
:1016400048885F846E847D848C849B84AA84B9845A
:10165000C884DF80EE80FD800C811B81AA81B98166
:10166000CE0FD11D0FB6F894DEBF0FBECDBFED017A
:061670000895F894FFCF7D
:101676000000000000000000000102020303030353
:10168600040404040404040405050505050505050C
:1016960005050505050505050606060606060606EC
:1016A60006060606060606060606060606060606D4
:1016B60006060606060606060707070707070707BC
:1016C60007070707070707070707070707070707A4
:1016D6000707070707070707070707070707070794
:1016E6000707070707070707070707070707070784
:1016F600070707070707070708080808080808086C
:101706000808080808080808080808080808080853
:101716000808080808080808080808080808080843
:101726000808080808080808080808080808080833
:101736000808080808080808080808080808080823
:101746000808080808080808080808080808080813
:101756000808080808080808080808080808080803
:1017660008080808080808080808080808080808F3
:1017760008080808080808085AFF0902220001019B
:1017860000003209040000010300000009211001D5
:1017960021012200000705810308000A0100390023
:0E17A600000012000000090AF40A400A580A66
:1070000071C00000A4C0000088C0000086C000005D
:1070100084C0000082C0000080C000007EC000006C
:107020007CC000007AC0000078C0000076C000007C
:1070300074C0000072C0000070C000006EC000008C
:107040006CC000006AC0000068C0000066C000009C
:1070500064C0000062C0000060C000005EC00000AC
:107060005CC000005AC000000403090412036F0052
:1070700062006400650076002E0061007400100359
:1070800048004900440042006F006F007400120184
:10709000100100000008C016DF0500010102000118
:1070A00009022200010100803209040000010300EE
:1070B00000000921010100012221000705810308C8
:1070C00000C80600FF0901A101150026FF00750890
:1070D000850195060900B20201850295830900B277
:1070E0000201C00011241FBECFEFD8E0DEBFCDBF2C
:1070F00011E0A0E0B1E0E0E5F7E702C005900D92F5
:10710000AA30B107D9F711E0AAE0B1E001C01D92A1
:10711000AB33B107E1F763D119C372CFA82FB92FF1
:1071200080E090E041E050EA609530E009C02D91A8
:1071300082279795879510F084279527305EC8F3AE
:107140006F5FA8F30895EADF8D939D930895CF9321
:10715000CFB7CF93C395489BE9F7489B09C0489B9D
:1071600007C0489B05C0489B03C0489B01C0A3C003
:10717000DF93C0911E01DD27CB5DDE4F489B02C02F
:10718000DF91EBCF2F930F931F9309B12FEF00FBEC
:1071900020F94F933F9319B14FEF012700FB21F9DD
:1071A0003BE031C04E7F012F19B1216028C0102F64
:1071B0004D7F2260000009B129C04B7F2460012F60
:1071C000000019B12BC019B1477F28602AC04F7E3B
:1071D00009B120612CC04F7D19B120622FC04F7BB7
:1071E00009B1206432C0422709B149934FEF000032
:1071F000102710FB20F919B11570C9F1297F91F200
:10720000012700FB21F909B1237F89F2315058F1A0
:10721000102710FB22F919B1277E79F2012700FB14
:1072200023F92F7C81F209B1102710FB24F92F7963
:1072300071F200C019B1012700FB25F92F7359F233
:1072400000C009B1102710FB26F9223040F200C01F
:1072500019B1012700FB27F9243028F64F77206861
:1072600019B10000F9CF11E01CBB002719C03B5039
:107270003195C31BD04011E01CBB0881033CF9F0E1
:107280000B34E9F020911C011981110F1213EDCF7D
:107290004A81441F093641F10D3211F0013E29F7B0
:1072A000009323013F914F911F910F912F91DF91F7
:1072B000CCB3C0FD4FCFCF91CFBFCF9118952091C8
:1072C0002301222379F310912101112321F5343078
:1072D00022F13093210120931D0110911E013BE00A
:1072E000311B30931E0119C00091210101309CF423
:1072F0000AE54F7081F43091000134FD10C0009315
:107300000001C1E1D1E00FC02795A8F45150A9F4C4
:10731000220F0000F9CF4AE503C042ED01C0432F20
:10732000C4E1D0E032E01AB11560589A1AB90BB135
:1073300020E415E05F93012756E00BB9279520F470
:10734000515021F4220FF9CF012756E000003B5A9B
:107350000BB9D0F2279528F4515029F4220F0000E0
:10736000F9CF012756E027950BB920F4515021F4AD
:10737000220FF9CF012756E0299133230BB921F6CB
:107380000A7F10912201110FC651D0400BB911F0A4
:1073900010931C0111E01CBB01601AB11A7F402F31
:1073A0004A7F5F9100C000C00BB91AB94BB97ACFC0
:1073B00014B88FEF85B917B888B9579A5F9888EED7
:1073C00093E0ECE2F1E03197F1F70197D1F70895FE
:1073D00083B190E08F3209F491E0892F08952FE076
:1073E00088E190E00FB6F894A895809360000FBEF6
:1073F00020936000DDDFECDF882341F480913B01C6
:1074000090913C018F5E9E4B09F08EC181E085BF5B
:1074100082E085BF80916900836080936900E89A6B
:10742000509A20E0A89588EB9BE00197F1F7215056
:10743000C9F750987894A89590912101392F33502D
:1074400037FD19C180911E01ACE0B0E0A81BB10965
:10745000AB5DBE4F80911D018D3209F0BDC038304B
:1074600009F007C183EC809311018AE58093000144
:1074700010920A012C91822F807611969C9111977F
:107480008823E1F0993079F412968C91129782302A
:1074900031F410920D0127FD8CC09FEF8CC081E06C
:1074A00080930E0151C1913009F04EC182E091E00C
:1074B0009093200180931F0127E081C012968C9148
:1074C000129710921A01992331F410921B018AE14C
:1074D00091E022E069C0953019F48093220161C0E7
:1074E000963009F04EC013968C911397813019F4A1
:1074F0008EE890E71DC0823041F480EA90E79093D7
:10750000200180931F0122E238C0833009F51296D2
:107510008C911297882341F488E690E7909320019C
:1075200080931F0124E029C0813041F48CE690E76C
:107530009093200180931F0122E11FC08230E1F46B
:107540008EE790E79093200180931F0120E115C002
:10755000813241F482EB90E79093200180931F01E8
:1075600029E00BC0823241F482EC90E79093200135
:1075700080931F0121E201C020E080E480930A0192
:107580001EC0983019F484E291E009C0993019F4D2
:107590008093240106C09A3021F48AE191E021E031
:1075A00003C08AE191E020E09093200180931F01C5
:1075B00006C016969C9180E880930A010AC017962F
:1075C0008C911797882321F416969C91921708F0B6
:1075D000922F909301014DC080910A0187FF49C00D
:1075E000C0910B01D0910C0180910D01882349F4C9
:1075F0001196CC9111971296DC9112971496392F0F
:107600003750632F680F60930D01AE014F7751F42F
:10761000F89483E0FE0180935700E895789407B6CC
:1076200000FCFDCFF894AE018D919C91119721E063
:10763000FE010C0120935700E895112478942296BE
:10764000FE01EF7751F4F89485E0FA01809357003A
:10765000E895789407B600FCFDCF325011F01296F1
:10766000D4CFD0930C01C0930B0167FF02C01092DE
:107670000101109221018091000184FF3CC08091A2
:1076800001018F3FC1F1182F893008F018E0811BEC
:10769000809301018091110198E88927809311015D
:1076A0001123E1F0E0911F01F091200180910A0186
:1076B00086FF09C0912FA2E1B1E084918D933196AC
:1076C0009150D9F707C0912FA2E1B1E081918D933C
:1076D0009150E1F7F0932001E0931F0182E191E0E6
:1076E000612F31DD612F6C5F6C3019F08FEF80936B
:1076F00001016093000194E189B1857031F49150EA
:10770000D9F71092220110921C0180910E0188235A
:1077100009F491CE80E395E70197F1F78FEF9FEFA2
:1077200090933C0180933B01F89481E18093570052
:10773000E8951DBA1092690081E085BF15BEE09101
:107740000F01F0911001099520E039CFF894FFCF97
:0A7750005AFF0180000080000000D5
:00000001FF
