:100000000C9488000C94C0000C94A5000C94A500DE
:100010000C94A5000C94A5000C94A5000C94A500CC
:100020000C94A5000C94A5000C94A5000C94A500BC
:100030000C94A5000C94A5000C94A5000C94A500AC
:100040000C94A5000C94A5000C94A5000C94A5009C
:100050000C94A5000C94A5000C94A5000C94A5008C
:100060000C94A5000C94A500040309042603720057
:100070006500740072006F006E0069006300640028
:1000800065007300690067006E002E0063006F005A
:100090006D0020034D005300580020004A006F00FF
:1000A00079007000610064002000760033002E00AB
:1000B00033001201010100000008100801E50601EB
:1000C0000102000105010905A101A1000501093096
:1000D0000931150026FF00750895028102050919EE
:1000E00001290215002501950875018102090015F5
:1000F0000026FF0075089501B20201C0C01201017F
:100100000100000008100801E506010102000100DD
:1001100011241FBECFEFD8E0DEBFCDBF11E0A0E0BD
:10012000B1E0E8EDFAE002C005900D92A633B10708
:10013000D9F711E0A6E3B1E001C01D92AD38B107D7
:10014000E1F70E94DA030C946A050C940000A82FD2
:10015000B92F80E090E041E050EA609530E009C0BE
:100160002D9182279795879510F084279527305EEB
:10017000C8F36F5FA8F30895EADF8D939D93089508
:10018000CF93CFB7CF93C395489BE9F7489B09C05E
:10019000489B07C0489B05C0489B03C0489B01C0C3
:1001A000A3C0DF93C0916F01DD27CA58DE4F489B83
:1001B00002C0DF91EBCF2F930F931F9309B12FEF65
:1001C00000FB20F94F933F9319B14FEF012700FB3C
:1001D00021F93BE031C04E7F012F19B1216028C0C9
:1001E000102F4D7F2260000009B129C04B7F246091
:1001F000012F000019B12BC019B1477F28602AC018
:100200004F7E09B120612CC04F7D19B120622FC0F3
:100210004F7B09B1206432C0422709B149934FEFA7
:100220000000102710FB20F919B11570C9F1297FC2
:1002300091F2012700FB21F909B1237F89F23150A6
:1002400058F1102710FB22F919B1277E79F2012706
:1002500000FB23F92F7C81F209B1102710FB24F950
:100260002F7971F200C019B1012700FB25F92F7316
:1002700059F200C009B1102710FB26F9223040F2D4
:1002800000C019B1012700FB27F9243028F64F7769
:10029000206819B10000F9CF11E01CBB002719C07C
:1002A0003B503195C31BD04011E01CBB0881033C7F
:1002B000F9F00B34E9F020916D011981110F12133F
:1002C000EDCF4A81441F093641F10D3211F0013E54
:1002D00029F7009374013F914F911F910F912F9136
:1002E000DF91CCB3C0FD4FCFCF91CFBFCF91189549
:1002F00020917401222379F310917201112369F581
:1003000034306AF13093720120936E0110916F01C5
:100310003BE0311B30936F0122C00091720101302C
:10032000E4F40AE54F7049F43091000134FD19C03E
:1003300000930001C6E5D1E018C03091610134FDA1
:1003400010C000936101C2E6D1E00FC02795A8F468
:100350005150A9F4220F0000F9CF4AE503C042ED45
:1003600001C0432FC4E1D0E032E01AB11560589AC1
:100370001AB90BB120E415E05F93012756E00BB9E1
:10038000279520F4515021F4220FF9CF012756E090
:1003900000003B5A0BB9D0F2279528F4515029F4AC
:1003A000220F0000F9CF012756E027950BB920F462
:1003B000515021F4220FF9CF012756E02991332320
:1003C0000BB921F60A7F10917301110FC651D0406D
:1003D0000BB911F010936D0111E01CBB01601AB153
:1003E0001A7F402F4A7F5F9100C000C00BB91AB935
:1003F0004BB971CFE9E6F0E0808182608083E89AB2
:100400008BE4809362018AE58093610108951F93D4
:10041000CF93DF9360917201635067FDBBC0809101
:100420006F01CCE0D0E0C81BD109CA58DE4F8091E3
:100430006E018D3209F09BC0683009F0A9C083ECD1
:10044000809356018AE580930001109236018881DD
:10045000807629F0CE010E947903282F75C09A81F9
:1004600010925F018981882321F41092600122E0BB
:1004700064C0853019F4909373015EC0863009F032
:1004800047C08B818130C9F1823031F4CE010E94A6
:100490004B03282F80E039C0833011F58A818823EF
:1004A00049F488E690E0909371018093700180E4B4
:1004B00024E02BC0813049F48CE690E090937101E8
:1004C0008093700180E426E220C08230E1F482E96A
:1004D00090E0909371018093700180E420E215C058
:1004E000813249F489E491E0909371018093700125
:1004F00080E429E00AC0823231F4CE010E944B032D
:10050000282F80E402C080E420E0809336011CC0E4
:10051000883021F421E085E791E011C0893019F499
:100520009093750109C08A3011F421E006C08B3028
:1005300019F48BE48093620120E08FE591E09093C1
:1005400071018093700109C02F3F39F4888187FDC4
:100550002E8180E88093360106C08F81882319F4AC
:100560008E81821708F0822F8093010111C0809143
:10057000360187FF0DC0CE010E94D1038F3F21F4C9
:100580008EE18093000104C0882311F010920101D4
:10059000109272018091000184FF4AC08091010194
:1005A0008F3F09F445C0182F893008F018E0811BEF
:1005B000809301018091560198E889278093560124
:1005C000112341F120917001309171018091360128
:1005D00086FF0DC0A7E5B1E080E090E0F901E80FEB
:1005E000F91FE491ED9301961817C1F708C0912FF8
:1005F000D901E7E5F1E08D9181939150E1F7115038
:10060000812F90E01F5F0196820F931F90937101DD
:100610008093700187E591E0612F0E94BC00612FFB
:100620006C5F6C3019F08FEF8093010160930001D3
:1006300094E189B1857031F49150D9F7109273012A
:1006400010926D01DF91CF911F9108951F93DC01EE
:10065000162F8091610184FF07C08091620198E8A4
:1006600089278093620103C08AE580936101912FFD
:10067000E3E6F1E08D9181939150E1F783E691E01B
:10068000612F0E94BC001C5F109361011F910895AF
:1006900082E190E00895FC018081807641F58181BE
:1006A000863029F583818230D1F0823269F0813041
:1006B000F1F480913B0190913C0190937101809302
:1006C000700180913D010895809138019091390128
:1006D000909371018093700180913A01089582E0B6
:1006E00091E0909371018093700182E2089580E01F
:1006F0000895DC012EE431E0309371012093700104
:100700008C918076803209F04AC011968C911197B5
:100710008230C9F0833020F4813009F040C007C036
:10072000893019F08A30D9F51EC08FEF0895E09115
:100730003E01F0913F010088F189E02DC901129638
:100740006C910995089512969C91892F815088305B
:1007500030F5892F90E08B5B9E4F909371018093D1
:10076000700181E008951296EC911297EE2359F4EE
:10077000E6E4F1E013968C911397819381E0EE34D7
:10078000F807C1F70CC08E2F8150883040F4F0E09C
:10079000EB5BFE4F13968C91808380E0089580E0A0
:1007A0000895FC0180818A3519F481E080938C01E1
:1007B000862F0895CDB7DEB72897DEBFCDBF109244
:1007C0008C0188E0FE013196DF01982F1D929A95E9
:1007D000E9F7E6E4F1E0DF011D928A95E9F70E946E
:1007E0005B05FC0190933F0180933E0184819581DC
:1007F0009093390180933801828180933A018085FA
:100800009185009731F090933C0180933B01868164
:1008100008C082EB90E090933C0180933B010E94E2
:10082000480380933D0180913A0180931B012FE0A2
:1008300088E190E00FB6F894A895809360000FBE11
:100840002093600084B1807C84B985B18F6385B9C1
:1008500087B18F6087B988B18A6088B988B18A7F8B
:1008600088B9579A5F988AB185608AB980E395E71D
:100870000197F1F78AB18A7F8AB914BC85E085BDFA
:1008800082E08093B00087E08093B10086E080939F
:10089000B30083B7817F83BFE0913E01F0913F01B8
:1008A0000284F385E02D09950E94FA01789411E005
:1008B000FF24882483945E010894A11CB11C91E05C
:1008C000C92ED12C82E0982E02C0FF2410E0A895FA
:1008D00080918C01882359F0F8948FEE9EEB9093D1
:1008E0003C0180933B018AB185608AB9FFCF0E94A9
:1008F0000702112341F0E0913E01F0913F01048491
:10090000F585E02D0995A89B27C085BA40913E0149
:1009100050913F01D50120E030E018C0F901EA5BB9
:10092000FE4FE081EE2379F08C91853018F08550F0
:100930008C9309C0EC93C601022E02C0880F991F48
:100940000A94E2F7F82A2F5F3F4F1196FA0180814F
:1009500091812817390714F3B99B27C097BAE09102
:100960003E01F0913F010484F585E02D099500E0FA
:1009700010E012C00684F785E02D802F8F5F099567
:10098000882341F0C601002E02C0880F991F0A94E7
:10099000E2F7F82A0F5F1F4FE0913E01F0913F010F
:1009A00080819181081719072CF3FF2009F48ECF5D
:1009B00000E010E0EF2CFF2424C0C701002E02C08D
:1009C000959587950A94E2F780FF19C0809161019F
:1009D00084FF15C0602F6F5F0088F189E02D80E4EF
:1009E00091E00995682F80E491E00E94260303C0FE
:1009F0000E940702A8958091610184FFF9CF0F5FE3
:100A00001F4FE0913E01F0913F01808191810817D5
:100A100019079CF25ACF84B1807C84B985B18F6369
:100A200085B987B18F6087B988B18A6088B988B184
:100A30008A7F88B9579A5F9880E0089583B18F7351
:100A400080935401089520E09091540180915501C4
:100A5000981321E0822F0895FC01009731F18091D5
:100A600054018095482F43FD03C020E830E002C0C8
:100A70002FEF30E042FF02C020E030E041FD03C034
:100A800080E890E002C08FEF90E040FF02C080E07D
:100A900090E020838183128244FF02C081E0828340
:100AA00045FF03C0828182608283809154018093DC
:100AB000550183E0089584EC90E0909329018093A0
:100AC00028018DEF90E090932D0180932C0184E21A
:080AD00091E00895F894FFCFB6
:100AD8005AFF090222000101000032090400000146
:100AE80003000000092110012101220000070581EF
:100AF8000308000A010039000000120000000B057D
:060B08001E0523052C056B
:1070000071C00000A4C0000088C0000086C000005D
:1070100084C0000082C0000080C000007EC000006C
:107020007CC000007AC0000078C0000076C000007C
:1070300074C0000072C0000070C000006EC000008C
:107040006CC000006AC0000068C0000066C000009C
:1070500064C0000062C0000060C000005EC00000AC
:107060005CC000005AC000000403090412036F0052
:1070700062006400650076002E0061007400100359
:1070800048004900440042006F006F007400120184
:10709000100100000008C016DF0500010102000118
:1070A00009022200010100803209040000010300EE
:1070B00000000921010100012221000705810308C8
:1070C00000C80600FF0901A101150026FF00750890
:1070D000850195060900B20201850295830900B277
:1070E0000201C00011241FBECFEFD8E0DEBFCDBF2C
:1070F00011E0A0E0B1E0E0E5F7E702C005900D92F5
:10710000AA30B107D9F711E0AAE0B1E001C01D92A1
:10711000AB33B107E1F763D119C372CFA82FB92FF1
:1071200080E090E041E050EA609530E009C02D91A8
:1071300082279795879510F084279527305EC8F3AE
:107140006F5FA8F30895EADF8D939D930895CF9321
:10715000CFB7CF93C395489BE9F7489B09C0489B9D
:1071600007C0489B05C0489B03C0489B01C0A3C003
:10717000DF93C0911E01DD27CB5DDE4F489B02C02F
:10718000DF91EBCF2F930F931F9309B12FEF00FBEC
:1071900020F94F933F9319B14FEF012700FB21F9DD
:1071A0003BE031C04E7F012F19B1216028C0102F64
:1071B0004D7F2260000009B129C04B7F2460012F60
:1071C000000019B12BC019B1477F28602AC04F7E3B
:1071D00009B120612CC04F7D19B120622FC04F7BB7
:1071E00009B1206432C0422709B149934FEF000032
:1071F000102710FB20F919B11570C9F1297F91F200
:10720000012700FB21F909B1237F89F2315058F1A0
:10721000102710FB22F919B1277E79F2012700FB14
:1072200023F92F7C81F209B1102710FB24F92F7963
:1072300071F200C019B1012700FB25F92F7359F233
:1072400000C009B1102710FB26F9223040F200C01F
:1072500019B1012700FB27F9243028F64F77206861
:1072600019B10000F9CF11E01CBB002719C03B5039
:107270003195C31BD04011E01CBB0881033CF9F0E1
:107280000B34E9F020911C011981110F1213EDCF7D
:107290004A81441F093641F10D3211F0013E29F7B0
:1072A000009323013F914F911F910F912F91DF91F7
:1072B000CCB3C0FD4FCFCF91CFBFCF9118952091C8
:1072C0002301222379F310912101112321F5343078
:1072D00022F13093210120931D0110911E013BE00A
:1072E000311B30931E0119C00091210101309CF423
:1072F0000AE54F7081F43091000134FD10C0009315
:107300000001C1E1D1E00FC02795A8F45150A9F4C4
:10731000220F0000F9CF4AE503C042ED01C0432F20
:10732000C4E1D0E032E01AB11560589A1AB90BB135
:1073300020E415E05F93012756E00BB9279520F470
:10734000515021F4220FF9CF012756E000003B5A9B
:107350000BB9D0F2279528F4515029F4220F0000E0
:10736000F9CF012756E027950BB920F4515021F4AD
:10737000220FF9CF012756E0299133230BB921F6CB
:107380000A7F10912201110FC651D0400BB911F0A4
:1073900010931C0111E01CBB01601AB11A7F402F31
:1073A0004A7F5F9100C000C00BB91AB94BB97ACFC0
:1073B00014B88FEF85B917B888B9579A5F9888EED7
:1073C00093E0ECE2F1E03197F1F70197D1F70895FE
:1073D00083B190E08F3209F491E0892F08952FE076
:1073E00088E190E00FB6F894A895809360000FBEF6
:1073F00020936000DDDFECDF882341F480913B01C6
:1074000090913C018F5E9E4B09F08EC181E085BF5B
:1074100082E085BF80916900836080936900E89A6B
:10742000509A20E0A89588EB9BE00197F1F7215056
:10743000C9F750987894A89590912101392F33502D
:1074400037FD19C180911E01ACE0B0E0A81BB10965
:10745000AB5DBE4F80911D018D3209F0BDC038304B
:1074600009F007C183EC809311018AE58093000144
:1074700010920A012C91822F807611969C9111977F
:107480008823E1F0993079F412968C91129782302A
:1074900031F410920D0127FD8CC09FEF8CC081E06C
:1074A00080930E0151C1913009F04EC182E091E00C
:1074B0009093200180931F0127E081C012968C9148
:1074C000129710921A01992331F410921B018AE14C
:1074D00091E022E069C0953019F48093220161C0E7
:1074E000963009F04EC013968C911397813019F4A1
:1074F0008EE890E71DC0823041F480EA90E79093D7
:10750000200180931F0122E238C0833009F51296D2
:107510008C911297882341F488E690E7909320019C
:1075200080931F0124E029C0813041F48CE690E76C
:107530009093200180931F0122E11FC08230E1F46B
:107540008EE790E79093200180931F0120E115C002
:10755000813241F482EB90E79093200180931F01E8
:1075600029E00BC0823241F482EC90E79093200135
:1075700080931F0121E201C020E080E480930A0192
:107580001EC0983019F484E291E009C0993019F4D2
:107590008093240106C09A3021F48AE191E021E031
:1075A00003C08AE191E020E09093200180931F01C5
:1075B00006C016969C9180E880930A010AC017962F
:1075C0008C911797882321F416969C91921708F0B6
:1075D000922F909301014DC080910A0187FF49C00D
:1075E000C0910B01D0910C0180910D01882349F4C9
:1075F0001196CC9111971296DC9112971496392F0F
:107600003750632F680F60930D01AE014F7751F42F
:10761000F89483E0FE0180935700E895789407B6CC
:1076200000FCFDCFF894AE018D919C91119721E063
:10763000FE010C0120935700E895112478942296BE
:10764000FE01EF7751F4F89485E0FA01809357003A
:10765000E895789407B600FCFDCF325011F01296F1
:10766000D4CFD0930C01C0930B0167FF02C01092DE
:107670000101109221018091000184FF3CC08091A2
:1076800001018F3FC1F1182F893008F018E0811BEC
:10769000809301018091110198E88927809311015D
:1076A0001123E1F0E0911F01F091200180910A0186
:1076B00086FF09C0912FA2E1B1E084918D933196AC
:1076C0009150D9F707C0912FA2E1B1E081918D933C
:1076D0009150E1F7F0932001E0931F0182E191E0E6
:1076E000612F31DD612F6C5F6C3019F08FEF80936B
:1076F00001016093000194E189B1857031F49150EA
:10770000D9F71092220110921C0180910E0188235A
:1077100009F491CE80E395E70197F1F78FEF9FEFA2
:1077200090933C0180933B01F89481E18093570052
:10773000E8951DBA1092690081E085BF15BEE09101
:107740000F01F0911001099520E039CFF894FFCF97
:0A7750005AFF0180000080000000D5
:00000001FF
