:100000000C9496000C94CE000C94B3000C94B300A6
:100010000C94B3000C94B3000C94B3000C94B30094
:100020000C94B3000C94B3000C94B3000C94B30084
:100030000C94B3000C94B3000C94B3000C94B30074
:100040000C94B3000C94B3000C94B3000C94B30064
:100050000C94B3000C94B3000C94B3000C94B30054
:100060000C94B3000C94B30004030904260372003B
:100070006500740072006F006E0069006300640028
:1000800065007300690067006E002E0063006F005A
:100090006D003A0343006F006C00650063006F0061
:1000A00056006900730069006F006E002000430075
:1000B0006F006E00740072006F006C006C006500D1
:1000C00072002000760033002E003300120101017F
:1000D00000000008100801E5060101020001050109
:1000E0000905A1010901A1000930093109321500F2
:1000F00026FF0075089503810205091901291015CD
:100100000025017501951081020900150026FF00E8
:1001100075089501B20201C0C01201010100000082
:1001200008100801E50601010200010011241FBEAC
:10013000CFEFD8E0DEBFCDBF11E0A0E0B1E0E0ED51
:10014000FCE002C005900D92A635B107D9F711E089
:10015000A6E5B1E001C01D92A33BB107E1F70E9403
:10016000E8030C9466060C940000A82FB92F80E0D9
:1001700090E041E050EA609530E009C02D9182277F
:100180009795879510F084279527305EC8F36F5FA9
:10019000A8F30895EADF8D939D930895CF93CFB789
:1001A000CF93C395489BE9F7489B09C0489B07C07C
:1001B000489B05C0489B03C0489B01C0A3C0DF9378
:1001C000C0919301DD27C656DE4F489B02C0DF91E8
:1001D000EBCF2F930F931F9309B12FEF00FB20F963
:1001E0004F933F9319B14FEF012700FB21F93BE0FB
:1001F00031C04E7F012F19B1216028C0102F4D7FD3
:100200002260000009B129C04B7F2460012F00004B
:1002100019B12BC019B1477F28602AC04F7E09B1A0
:1002200020612CC04F7D19B120622FC04F7B09B1D6
:10023000206432C0422709B149934FEF00001027D4
:1002400010FB20F919B11570C9F1297F91F201272E
:1002500000FB21F909B1237F89F2315058F11027B1
:1002600010FB22F919B1277E79F2012700FB23F94F
:100270002F7C81F209B1102710FB24F92F7971F23C
:1002800000C019B1012700FB25F92F7359F200C0F6
:1002900009B1102710FB26F9223040F200C019B135
:1002A000012700FB27F9243028F64F77206819B181
:1002B0000000F9CF11E01CBB002719C03B5031955D
:1002C000C31BD04011E01CBB0881033CF9F00B3488
:1002D000E9F0209191011981110F1213EDCF4A819C
:1002E000441F093641F10D3211F0013E29F7009308
:1002F00098013F914F911F910F912F91DF91CCB3B6
:10030000C0FD4FCFCF91CFBFCF91189520919801CD
:10031000222379F310919601112369F534306AF1A3
:100320003093960120939201109193013BE0311B91
:100330003093930122C0009196010130E4F40AE564
:100340004F7049F43091000134FD19C00093000151
:10035000CAE7D1E018C03091850134FD10C0009388
:100360008501C6E8D1E00FC02795A8F45150A9F443
:10037000220F0000F9CF4AE503C042ED01C0432F30
:10038000C4E1D0E032E01AB11560589A1AB90BB145
:1003900020E415E05F93012756E00BB9279520F480
:1003A000515021F4220FF9CF012756E000003B5AAB
:1003B0000BB9D0F2279528F4515029F4220F0000F0
:1003C000F9CF012756E027950BB920F4515021F4BD
:1003D000220FF9CF012756E0299133230BB921F6DB
:1003E0000A7F10919701110FC651D0400BB911F03F
:1003F0001093910111E01CBB01601AB11A7F402FCC
:100400004A7F5F9100C000C00BB91AB94BB971CFD8
:10041000E9E6F0E0808182608083E89A8BE4809353
:1004200086018AE58093850108951F93CF93DF931A
:1004300060919601635067FDBBC080919301CCE051
:10044000D0E0C81BD109C656DE4F809192018D3293
:1004500009F09BC0683009F0A9C083EC80937A0151
:100460008AE580930001109256018881807629F0F8
:10047000CE010E948703282F75C09A8110928301B4
:100480008981882321F41092840122E064C08530A0
:1004900019F4909397015EC0863009F047C08B81B4
:1004A0008130C9F1823031F4CE010E945903282FE6
:1004B00080E039C0833011F58A81882349F488E6C9
:1004C00090E0909395018093940180E424E02BC008
:1004D000813049F48CE690E09093950180939401EB
:1004E00080E426E220C08230E1F482E990E090933B
:1004F00095018093940180E42AE315C0813249F488
:1005000089E691E0909395018093940180E429E03D
:100510000AC0823231F4CE010E945903282F80E4B0
:1005200002C080E420E0809356011CC0883021F492
:1005300021E089E991E011C0893019F49093990183
:1005400009C08A3011F421E006C08B3019F48BE425
:100550008093860120E083E891E090939501809359
:10056000940109C02F3F39F4888187FD2E8180E8EE
:100570008093560106C08F81882319F48E818217DB
:1005800008F0822F8093010111C08091560187FFEE
:100590000DC0CE010E94DF038F3F21F48EE18093D6
:1005A000000104C0882311F01092010110929601FD
:1005B0008091000184FF4AC0809101018F3F09F4BE
:1005C00045C0182F893008F018E0811B8093010185
:1005D00080917A0198E8892780937A01112341F16B
:1005E00020919401309195018091560186FF0DC0B4
:1005F000ABE7B1E080E090E0F901E80FF91FE4918A
:10060000ED9301961817C1F708C0912FD901EBE7B8
:10061000F1E08D9181939150E1F71150812F90E09D
:100620001F5F0196820F931F909395018093940111
:100630008BE791E0612F0E94CA00612F6C5F6C30E4
:1006400019F08FEF809301016093000194E189B16B
:10065000857031F49150D9F7109297011092910161
:10066000DF91CF911F9108951F93DC01162F809188
:10067000850184FF07C08091860198E889278093CF
:10068000860103C08AE580938501912FE7E8F1E0B8
:100690008D9181939150E1F787E891E0612F0E945D
:1006A000CA001C5F109385011F91089582E190E0BC
:1006B0000895FC018081807641F58181863029F59D
:1006C00083818230D1F0823269F08130F1F48091FF
:1006D0005B0190915C0190939501809394018091CE
:1006E0005D01089580915801909159019093950171
:1006F0008093940180915A01089582E091E0909353
:1007000095018093940182E2089580E00895DC01D0
:100710002EE631E030939501209394018C91807600
:10072000803209F04AC011968C9111978230C9F03D
:10073000833020F4813009F040C007C0893019F0BF
:100740008A30D9F51EC08FEF0895E0915E01F091D7
:100750005F010088F189E02DC90112966C9109951D
:10076000089512969C91892F8150883030F5892FF9
:1007700090E08B599E4F909395018093940181E076
:1007800008951296EC911297EE2359F4E6E6F1E003
:1007900013968C911397819381E0EE36F807C1F799
:1007A0000CC08E2F8150883040F4F0E0EB59FE4FA2
:1007B00013968C91808380E0089580E00895FC0179
:1007C00080818A3519F481E08093B001862F0895E5
:1007D000CDB7DEB72897DEBFCDBF1092B00188E05D
:1007E000FE013196DF01982F1D929A95E9F7E6E612
:1007F000F1E0DF011D928A95E9F70E945706FC019E
:1008000090935F0180935E0184819581909359015B
:1008100080935801828180935A0180859185009749
:1008200031F090935C0180935B01868108C08CEC71
:1008300090E090935C0180935B010E94560380934B
:100840005D0180915A0180931B012FE088E190E0C7
:100850000FB6F894A895809360000FBE20936000B7
:1008600084B1807C84B985B18F6385B987B18A7F73
:1008700087B987B18A6087B988B18E6088B9579A7D
:100880005F988AB185608AB980E395E70197F1F7AF
:100890008AB18A7F8AB914BC85E085BD82E08093E5
:1008A000B00087E08093B10086E08093B30083B707
:1008B000817F83BFE0915E01F0915F010284F38547
:1008C000E02D09950E940802789411E0FF24882405
:1008D00083945E010894A11CB11C91E0C92ED12C17
:1008E00082E0982E02C0FF2410E0A8958091B0010C
:1008F000882359F0F8948FEE9EEB90933C018093FF
:100900003B018AB185608AB9FFCF0E94150211238D
:1009100041F0E0915E01F0915F010484F585E02DE6
:100920000995A89B27C085BA40915E0150915F014F
:10093000D50120E030E018C0F901EA59FE4FE0810E
:10094000EE2379F08C91853018F085508C9309C096
:10095000EC93C601022E02C0880F991F0A94E2F799
:10096000F82A2F5F3F4F1196FA0180819181281755
:10097000390714F3B99B27C097BAE0915E01F09153
:100980005F010484F585E02D099500E010E012C0B8
:100990000684F785E02D802F8F5F0995882341F02D
:1009A000C601002E02C0880F991F0A94E2F7F82AA8
:1009B0000F5F1F4FE0915E01F0915F018081918197
:1009C000081719072CF3FF2009F48ECF00E010E080
:1009D000EF2CFF2424C0C701002E02C095958795F7
:1009E0000A94E2F780FF19C08091850184FF15C049
:1009F000602F6F5F0088F189E02D80E691E0099516
:100A0000682F80E691E00E94340303C00E94150223
:100A1000A8958091850184FFF9CF0F5F1F4FE0916A
:100A20005E01F0915F0180819181081719079CF2A6
:100A30005ACF88B18A6088B95F9820E737E1C90149
:100A40000197F1F743B14F734093740188B1857FEB
:100A500088B95F9AC9010197F1F723B186B190E097
:100A600084709070A3E0880F991FAA95E1F72F7109
:100A7000282B2093750130E020953095207230703E
:100A8000F4E035952795FA95E1F750E040955095BB
:100A900040725070E5E055954795EA95E1F7422B95
:100AA000409378012091B1013091B201E42FF0E040
:100AB0008091790190E0880F991F880F991FE82B8A
:100AC000F92BEE0FFF1FEC5DFE4F8081918155E009
:100AD000880F991F5A95E1F7820F931F9093B201E7
:100AE0008093B1018091B1019091B2018F3F910546
:100AF00039F034F08FEF90E09093B2018093B10120
:100B00008091B1019091B20197FF04C01092B2019F
:100B10001092B10140937901089584B1807C84B929
:100B200085B18F6385B987B18A7F87B987B18A60BC
:100B300087B988B18E6088B9579A5F980E94190565
:100B400080E890E09093B2018093B10180E0089535
:100B50009091740180917601981741F420E030E083
:100B60009091750180917701981711F021E030E0A4
:100B7000822F0895FC01009709F48FC050917501F0
:100B8000809174018095482F83FD03C020E830E0F8
:100B900002C02FEF30E042FF02C020E030E041FD14
:100BA00003C080E890E002C08FEF90E040FF02C0F9
:100BB00080E090E0208381838091B1019091B20127
:100BC00082831382148244FF03C080E081608383A8
:100BD0005095252F30E054FF03C0838182608383CA
:100BE000C9018F70907087309105B1F188309105FF
:100BF000ACF48330910509F444C0843091053CF491
:100C00008130910579F1029709F047C034C08530F1
:100C10009105D1F12381069714F518C08B30910509
:100C2000C9F18C30910534F48930910589F00A9727
:100C30002CF509C08D30910551F18D309105ACF046
:100C40000E9759F515C08381846004C0286008C0E0
:100C500083818061838321C083818062FBCF206494
:100C600023831BC083818068F5CF8481816014C099
:100C70008481826011C0848184600EC08481886018
:100C80000BC08481806108C08481806205C084813A
:100C9000806402C084818068848380917401809321
:100CA0007601809175018093770185E008958EED3E
:100CB00090E0909349018093480189E191E09093FD
:100CC0004D0180934C0184E491E00895F894FFCFA6
:100CD0005AFF09022200010100003209040000014C
:100CE00003000000092110012101220000070581F5
:100CF0000308000A00000100FFFF0200FFFF0000E0
:100D000002000100010002000000FFFF0200FFFFDF
:100D10000100000001003B000000120000008D05F2
:060D20001905A805BA0543
:1070000071C00000A4C0000088C0000086C000005D
:1070100084C0000082C0000080C000007EC000006C
:107020007CC000007AC0000078C0000076C000007C
:1070300074C0000072C0000070C000006EC000008C
:107040006CC000006AC0000068C0000066C000009C
:1070500064C0000062C0000060C000005EC00000AC
:107060005CC000005AC000000403090412036F0052
:1070700062006400650076002E0061007400100359
:1070800048004900440042006F006F007400120184
:10709000100100000008C016DF0500010102000118
:1070A00009022200010100803209040000010300EE
:1070B00000000921010100012221000705810308C8
:1070C00000C80600FF0901A101150026FF00750890
:1070D000850195060900B20201850295830900B277
:1070E0000201C00011241FBECFEFD8E0DEBFCDBF2C
:1070F00011E0A0E0B1E0E0E5F7E702C005900D92F5
:10710000AA30B107D9F711E0AAE0B1E001C01D92A1
:10711000AB33B107E1F763D119C372CFA82FB92FF1
:1071200080E090E041E050EA609530E009C02D91A8
:1071300082279795879510F084279527305EC8F3AE
:107140006F5FA8F30895EADF8D939D930895CF9321
:10715000CFB7CF93C395489BE9F7489B09C0489B9D
:1071600007C0489B05C0489B03C0489B01C0A3C003
:10717000DF93C0911E01DD27CB5DDE4F489B02C02F
:10718000DF91EBCF2F930F931F9309B12FEF00FBEC
:1071900020F94F933F9319B14FEF012700FB21F9DD
:1071A0003BE031C04E7F012F19B1216028C0102F64
:1071B0004D7F2260000009B129C04B7F2460012F60
:1071C000000019B12BC019B1477F28602AC04F7E3B
:1071D00009B120612CC04F7D19B120622FC04F7BB7
:1071E00009B1206432C0422709B149934FEF000032
:1071F000102710FB20F919B11570C9F1297F91F200
:10720000012700FB21F909B1237F89F2315058F1A0
:10721000102710FB22F919B1277E79F2012700FB14
:1072200023F92F7C81F209B1102710FB24F92F7963
:1072300071F200C019B1012700FB25F92F7359F233
:1072400000C009B1102710FB26F9223040F200C01F
:1072500019B1012700FB27F9243028F64F77206861
:1072600019B10000F9CF11E01CBB002719C03B5039
:107270003195C31BD04011E01CBB0881033CF9F0E1
:107280000B34E9F020911C011981110F1213EDCF7D
:107290004A81441F093641F10D3211F0013E29F7B0
:1072A000009323013F914F911F910F912F91DF91F7
:1072B000CCB3C0FD4FCFCF91CFBFCF9118952091C8
:1072C0002301222379F310912101112321F5343078
:1072D00022F13093210120931D0110911E013BE00A
:1072E000311B30931E0119C00091210101309CF423
:1072F0000AE54F7081F43091000134FD10C0009315
:107300000001C1E1D1E00FC02795A8F45150A9F4C4
:10731000220F0000F9CF4AE503C042ED01C0432F20
:10732000C4E1D0E032E01AB11560589A1AB90BB135
:1073300020E415E05F93012756E00BB9279520F470
:10734000515021F4220FF9CF012756E000003B5A9B
:107350000BB9D0F2279528F4515029F4220F0000E0
:10736000F9CF012756E027950BB920F4515021F4AD
:10737000220FF9CF012756E0299133230BB921F6CB
:107380000A7F10912201110FC651D0400BB911F0A4
:1073900010931C0111E01CBB01601AB11A7F402F31
:1073A0004A7F5F9100C000C00BB91AB94BB97ACFC0
:1073B00014B88FEF85B917B888B9579A5F9888EED7
:1073C00093E0ECE2F1E03197F1F70197D1F70895FE
:1073D00083B190E08F3209F491E0892F08952FE076
:1073E00088E190E00FB6F894A895809360000FBEF6
:1073F00020936000DDDFECDF882341F480913B01C6
:1074000090913C018F5E9E4B09F08EC181E085BF5B
:1074100082E085BF80916900836080936900E89A6B
:10742000509A20E0A89588EB9BE00197F1F7215056
:10743000C9F750987894A89590912101392F33502D
:1074400037FD19C180911E01ACE0B0E0A81BB10965
:10745000AB5DBE4F80911D018D3209F0BDC038304B
:1074600009F007C183EC809311018AE58093000144
:1074700010920A012C91822F807611969C9111977F
:107480008823E1F0993079F412968C91129782302A
:1074900031F410920D0127FD8CC09FEF8CC081E06C
:1074A00080930E0151C1913009F04EC182E091E00C
:1074B0009093200180931F0127E081C012968C9148
:1074C000129710921A01992331F410921B018AE14C
:1074D00091E022E069C0953019F48093220161C0E7
:1074E000963009F04EC013968C911397813019F4A1
:1074F0008EE890E71DC0823041F480EA90E79093D7
:10750000200180931F0122E238C0833009F51296D2
:107510008C911297882341F488E690E7909320019C
:1075200080931F0124E029C0813041F48CE690E76C
:107530009093200180931F0122E11FC08230E1F46B
:107540008EE790E79093200180931F0120E115C002
:10755000813241F482EB90E79093200180931F01E8
:1075600029E00BC0823241F482EC90E79093200135
:1075700080931F0121E201C020E080E480930A0192
:107580001EC0983019F484E291E009C0993019F4D2
:107590008093240106C09A3021F48AE191E021E031
:1075A00003C08AE191E020E09093200180931F01C5
:1075B00006C016969C9180E880930A010AC017962F
:1075C0008C911797882321F416969C91921708F0B6
:1075D000922F909301014DC080910A0187FF49C00D
:1075E000C0910B01D0910C0180910D01882349F4C9
:1075F0001196CC9111971296DC9112971496392F0F
:107600003750632F680F60930D01AE014F7751F42F
:10761000F89483E0FE0180935700E895789407B6CC
:1076200000FCFDCFF894AE018D919C91119721E063
:10763000FE010C0120935700E895112478942296BE
:10764000FE01EF7751F4F89485E0FA01809357003A
:10765000E895789407B600FCFDCF325011F01296F1
:10766000D4CFD0930C01C0930B0167FF02C01092DE
:107670000101109221018091000184FF3CC08091A2
:1076800001018F3FC1F1182F893008F018E0811BEC
:10769000809301018091110198E88927809311015D
:1076A0001123E1F0E0911F01F091200180910A0186
:1076B00086FF09C0912FA2E1B1E084918D933196AC
:1076C0009150D9F707C0912FA2E1B1E081918D933C
:1076D0009150E1F7F0932001E0931F0182E191E0E6
:1076E000612F31DD612F6C5F6C3019F08FEF80936B
:1076F00001016093000194E189B1857031F49150EA
:10770000D9F71092220110921C0180910E0188235A
:1077100009F491CE80E395E70197F1F78FEF9FEFA2
:1077200090933C0180933B01F89481E18093570052
:10773000E8951DBA1092690081E085BF15BEE09101
:107740000F01F0911001099520E039CFF894FFCF97
:0A7750005AFF0180000080000000D5
:00000001FF
