:100000000C948B000C94C3000C94A8000C94A800D2
:100010000C94A8000C94A8000C94A8000C94A800C0
:100020000C94A8000C94A8000C94A8000C94A800B0
:100030000C94A8000C94A8000C94A8000C94A800A0
:100040000C94A8000C94A8000C94A8000C94A80090
:100050000C94A8000C94A8000C94A8000C94A80080
:100060000C94A8000C94A800040309042603720051
:100070006500740072006F006E0069006300640028
:1000800065007300690067006E002E0063006F005A
:100090006D002603410074006100720069002000B9
:1000A00050006100640064006C0065007300200073
:1000B000760033002E003300120101010000000819
:1000C000100801E506010102000105010905A10171
:1000D000A100050109300931150026FF00750895BA
:1000E00002810205091901290215002501950875EB
:1000F0000181020900150026FF0075089501B20272
:1001000001C0C01201010100000008100801E5064D
:1001100001010200010011241FBECFEFD8E0DEBFB5
:10012000CDBF12E0A0E0B1E0E6E0F3E102C005904F
:100130000D92AE33B107D9F712E0AEE3B2E001C0E1
:100140001D92AD39B107E1F70E94EC060C948109CC
:100150000C940000A82FB92F80E090E041E050EA15
:10016000609530E009C02D9182279795879510F012
:1001700084279527305EC8F36F5FA8F30895EADF00
:100180008D939D930895CF93CFB7CF93C395489BFD
:10019000E9F7489B09C0489B07C0489B05C0489B9E
:1001A00003C0489B01C0A3C0DF93C0917702DD2745
:1001B000C258DD4F489B02C0DF91EBCF2F930F93C6
:1001C0001F9309B12FEF00FB20F94F933F9319B113
:1001D0004FEF012700FB21F93BE031C04E7F012F9B
:1001E00019B1216028C0102F4D7F2260000009B195
:1001F00029C04B7F2460012F000019B12BC019B119
:10020000477F28602AC04F7E09B120612CC04F7DF6
:1002100019B120622FC04F7B09B1206432C0422740
:1002200009B149934FEF0000102710FB20F919B1D5
:100230001570C9F1297F91F2012700FB21F909B15D
:10024000237F89F2315058F1102710FB22F919B1A0
:10025000277E79F2012700FB23F92F7C81F209B177
:10026000102710FB24F92F7971F200C019B1012772
:1002700000FB25F92F7359F200C009B1102710FBBC
:1002800026F9223040F200C019B1012700FB27F9FE
:10029000243028F64F77206819B10000F9CF11E01B
:1002A0001CBB002719C03B503195C31BD04011E047
:1002B0001CBB0881033CF9F00B34E9F02091750276
:1002C0001981110F1213EDCF4A81441F093641F1F4
:1002D0000D3211F0013E29F700937C023F914F91BE
:1002E0001F910F912F91DF91CCB3C0FD4FCFCF91D4
:1002F000CFBFCF91189520917C02222379F31091E2
:100300007A02112369F534306AF130937A0220932E
:100310007602109177023BE0311B3093770222C0C6
:1003200000917A020130E4F40AE54F7049F430910B
:10033000080234FD19C000930802CEE5D2E018C0CF
:100340003091690234FD10C000936902CAE6D2E020
:100350000FC02795A8F45150A9F4220F0000F9CF3F
:100360004AE503C042ED01C0432FC4E1D0E032E0D2
:100370001AB11560589A1AB90BB120E415E05F93D1
:10038000012756E00BB9279520F4515021F4220F94
:10039000F9CF012756E000003B5A0BB9D0F2279560
:1003A00028F4515029F4220F0000F9CF012756E01C
:1003B00027950BB920F4515021F4220FF9CF0127D2
:1003C00056E0299133230BB921F60A7F10917B0265
:1003D000110FC651D0400BB911F01093750211E006
:1003E0001CBB01601AB11A7F402F4A7F5F9100C089
:1003F00000C00BB91AB94BB971CFA8E1B0E0E3E086
:10040000F2E00C94520969837A838B839C832D8359
:100410003E834F835887B9E0EB2EF12CEC0EFD1E86
:10042000CE010196B7010E949A048E010F5E1F4F04
:10043000CE010596B8010E949A042985223008F45D
:100440007EC03989323010F4B8017CC08A859A891F
:1004500089278A87243011F0223031F4231709F0DC
:100460006EC060E071E06EC0343039F41D861E86C7
:100470001F86188A1C861B8604C0323021F484E053
:100480008987B7015FC02B853C858B899C89281B98
:10049000390B3C872B87ED84FE840F851889AD8846
:1004A000BE88CF88D88CEA14FB040C051D0540F4E7
:1004B000EE0CFF1C001F111F215030403C872B8782
:1004C00020E030E040E050E080E090E0A0E0B0E4E8
:1004D00060E070E0EA14FB040C051D0540F0282BD9
:1004E000392B4A2B5B2BEA18FB080C091D09B69522
:1004F000A79597958795EE0CFF1C001F111F6F5F46
:100500007F4F6F31710531F7DA01C9018F77907034
:10051000A070B07080349105A105B10561F427FD8C
:100520000AC0E114F1040105110529F0205C3F4FD8
:100530004F4F5F4F20782D873E874F87588BBE01E6
:10054000675F7F4FCB010E94C5036896EAE00C9479
:100550006E09ACE0B0E0EFEAF2E00C945A0969836E
:100560007A838B839C83CE010196BE016B5F7F4FA4
:100570000E949A048D81823061F1823050F1843082
:1005800021F48E81882351F12EC02F81388537FDCB
:1005900020C06E812F3131051CF06623F9F023C095
:1005A0008EE190E0821B930B29853A854B855C8513
:1005B00004C056954795379527958A95D2F76623B7
:1005C000B1F050954095309521953F4F4F4F5F4F7B
:1005D0000EC020E030E040E050E009C02FEF3FEFD8
:1005E0004FEF5FE704C020E030E040E050E8B901A1
:1005F000CA012C96E2E00C947609A8E0B0E0E3E0B2
:10060000F3E00C9452097B018C01611571058105A1
:10061000910519F482E0898360C083E089838EE1CB
:10062000C82ED12CDC82CB82ED82FE820F8318870C
:10063000C801B7010E947603FC013197F7FF3BC068
:10064000222733272E1B3F0B57016801022E04C0BF
:10065000D694C794B794A7940A94D2F740E050E098
:1006600060E070E081E090E0A0E0B0E004C0880FBE
:10067000991FAA1FBB1F2A95D2F70197A109B1099B
:100680008E219F21A023B1230097A105B10521F060
:1006900041E050E060E070E04A295B296C297D2947
:1006A0004D835E836F8378878EE190E08E1B9F0B76
:1006B0009C838B8312C0309781F00E2E04C0EE0C09
:1006C000FF1C001F111F0A94D2F7ED82FE820F83D8
:1006D0001887CE1ADF0ADC82CB821A82CE010196FD
:1006E0000E94C5032896EAE00C946E09EF92FF92EF
:1006F0000F931F937B018C0180E0E81680E0F806E1
:1007000081E0080780E0180788F48FEFE816F1040D
:100710000105110531F028F088E090E0A0E0B0E09C
:1007200017C080E090E0A0E0B0E012C080E0E816E2
:1007300080E0F80680E0080781E0180728F088E1EB
:1007400090E0A0E0B0E004C080E190E0A0E0B0E084
:1007500020E230E040E050E0281B390B4A0B5B0BF5
:1007600004C016950795F794E7948A95D2F7F70198
:10077000E85FFE4F8081281B310941095109C901F9
:100780001F910F91FF90EF900895DF92EF92FF92EB
:100790000F931F93FC01E480F58006811781D180BF
:1007A0008081823048F480E090E0A0E1B0E0E82A67
:1007B000F92A0A2B1B2BA5C0843009F49FC0823074
:1007C00021F4EE24FF24870105C0E114F1040105A2
:1007D000110519F4E0E0F0E096C0628173819FEFAB
:1007E000623879070CF05BC022E83FEF261B370B1D
:1007F0002A3131052CF020E030E040E050E02AC002
:10080000B801A701022E04C07695679557954795C4
:100810000A94D2F781E090E0A0E0B0E004C0880F35
:10082000991FAA1FBB1F2A95D2F70197A109B109E9
:100830008E219F21A023B1230097A105B10521F0AE
:1008400081E090E0A0E0B0E09A01AB01282B392BC9
:100850004A2B5B2BDA01C9018F779070A070B070C2
:1008600080349105A105B10539F427FF09C0205C4A
:100870003F4F4F4F5F4F04C0215C3F4F4F4F5F4F83
:10088000E0E0F0E02030A0E03A07A0E04A07A0E472
:100890005A0710F0E1E0F0E079018A0127C06038E2
:1008A000710564F5FB01E158FF4FD801C7018F774F
:1008B0009070A070B07080349105A105B10539F435
:1008C000E7FE0DC080E490E0A0E0B0E004C08FE35C
:1008D00090E0A0E0B0E0E80EF91E0A1F1B1F17FF12
:1008E00005C016950795F794E794319687E016951D
:1008F0000795F794E7948A95D1F705C0EE24FF2475
:100900008701EFEFF0E06E2F679566276795902FD0
:100910009F77D794DD24D7948E2F8695492F462B29
:10092000582F5D29B701CA011F910F91FF90EF90D9
:10093000DF900895FC01DB01408151812281622F0B
:100940006F7770E0221F2227221F9381892F880F43
:10095000822B282F30E0991F9927991F11969C937D
:10096000119721153105A9F541155105610571054D
:1009700011F482E037C082E89FEF13969C938E9328
:1009800012979A01AB0167E0220F331F441F551FD6
:100990006A95D1F783E08C930DC0220F331F441F5B
:1009A000551F12968D919C911397019713969C93C6
:1009B0008E931297203080E0380780E0480780E46B
:1009C000580758F314962D933D934D935C931797C6
:1009D00008952F3F310579F44115510561057105E1
:1009E00019F484E08C93089564FF03C081E08C9334
:1009F00012C01C9210C02F57304013963C932E9378
:100A0000129783E08C9387E0440F551F661F771F72
:100A10008A95D1F7706414964D935D936D937C9392
:100A200017970895E9E6F0E0808182608083E89A74
:100A30008BE480936A028AE58093690208951F938C
:100A4000CF93DF9360917A02635067FDB5C08091C8
:100A50007702CCE0D0E0C81BD109C258DD4F8091AD
:100A600076028D3209F095C0683009F0A3C083EC9E
:100A700080935E028AE58093080210923E0288818C
:100A8000807629F0CE010E948B06282F6FC09A81B4
:100A9000109267028981882321F41092680222E073
:100AA0005EC0853019F490937B0258C0863009F0FF
:100AB00041C08B81813099F1823031F4CE010E94A6
:100AC0005D06282F80E033C08330E1F48A818823DB
:100AD00049F488E690E0909379028093780280E46C
:100AE00024E025C0813019F48CE690E004C0823007
:100AF000E1F482E990E0909379028093780280E4B7
:100B000026E215C0813249F481E592E090937902A2
:100B10008093780280E429E00AC0823231F4CE0169
:100B20000E945D06282F80E402C080E420E08093CC
:100B30003E021CC0883021F421E08DE792E011C014
:100B4000893019F490937D0209C08A3011F421E0B4
:100B500006C08B3019F48BE480936A0220E087E6AC
:100B600092E0909379028093780209C02F3F39F484
:100B7000888187FD2E8180E880933E0206C08F81A8
:100B8000882319F48E81821708F0822F809309023E
:100B900011C080913E0287FF0DC0CE010E94E30686
:100BA0008F3F21F48EE18093080204C0882311F066
:100BB0001092090210927A028091080284FF4AC0C2
:100BC000809109028F3F09F445C0182F893008F041
:100BD00018E0811B8093090280915E0298E88927C2
:100BE00080935E02112341F12091780230917902C5
:100BF00080913E0286FF0DC0AFE5B2E080E090E05C
:100C0000F901E80FF91FE491ED9301961817C1F768
:100C100008C0912FD901EFE5F2E08D9181939150B9
:100C2000E1F71150812F90E01F5F0196820F931F13
:100C300090937902809378028FE592E0612F0E9471
:100C4000BF00612F6C5F6C3019F08FEF8093090249
:100C50006093080294E189B1857031F49150D9F71D
:100C600010927B0210927502DF91CF911F9108952F
:100C70001F93DC01162F8091690284FF07C08091C9
:100C80006A0298E8892780936A0203C08AE5809304
:100C90006902912FEBE6F2E08D9181939150E1F79B
:100CA0008BE692E0612F0E94BF001C5F10936902E7
:100CB0001F91089582E190E00895FC018081807683
:100CC00041F58181863029F583818230D1F08232ED
:100CD00069F08130F1F48091430290914402909345
:100CE00079028093780280914502089580914002B4
:100CF0009091410290937902809378028091420210
:100D000008958AE092E0909379028093780282E2DB
:100D1000089580E00895DC0126E532E03093790201
:100D2000209378028C918076803209F04AC0119627
:100D30008C9111978230C9F0833020F4813009F012
:100D400040C007C0893019F08A30D9F51EC08FEF36
:100D50000895E0914602F09147020088F189E02D64
:100D6000C90112966C910995089512969C91892F4C
:100D70008150883030F5892F90E0835B9D4F9093B0
:100D800079028093780281E008951296EC9112978F
:100D9000EE2359F4EEE4F2E013968C9113978193CD
:100DA00082E0E635F807C1F70CC08E2F81508830FD
:100DB00040F4F0E0E35BFD4F13968C91808380E07C
:100DC000089580E00895FC0180818A3519F481E05E
:100DD00080939402862F0895CDB7DEB72897DEBFA3
:100DE000CDBF1092940288E0FE013196DF01982F6A
:100DF0001D929A95E9F7EEE4F2E0DF011D928A95E3
:100E0000E9F70E943B09FC01909347028093460258
:100E100084819581909341028093400282818093E6
:100E2000420280859185009731F09093440280932F
:100E30004302868108C088EB90E09093440280933F
:100E400043020E945A068093450280914202809399
:100E500023022FE088E190E00FB6F894A8958093E4
:100E600060000FBE2093600084B1837F84B9259A0F
:100E700085B18C6285B9579A5F9887B1837F87B9AE
:100E800088B1837F88B987B18C7F87B988B18C7F1F
:100E900088B98AB185608AB980E395E70197F1F74F
:100EA0008AB18A7F8AB914BC85E085BD82E08093CF
:100EB000B00087E08093B10086E08093B30083B7F1
:100EC000817F83BFE0914602F09147020284F3855F
:100ED000E02D09950E9412057894FF2411E08824E2
:100EE00083945E010894A11CB11C91E0C92ED12C01
:100EF00082E0982E02C0FF2410E0A8958091940211
:100F0000882359F0F8948FEE9EEB90933C018093E8
:100F10003B018AB185608AB9FFCF0E941F0511236A
:100F200041F0E0914602F09147020484F585E02DFE
:100F30000995A89B27C085BA409146025091470267
:100F4000D50120E030E018C0F901E25BFD4FE081FF
:100F5000EE2379F08C91853018F085508C9309C080
:100F6000EC93C601022E02C0880F991F0A94E2F783
:100F7000F82A2F5F3F4F1196FA018081918128173F
:100F8000390714F3B99B27C097BAE0914602F09154
:100F900047020484F585E02D099500E010E012C0B9
:100FA0000684F785E02D802F8F5F0995882341F017
:100FB000C601002E02C0880F991F0A94E2F7F82A92
:100FC0000F5F1F4FE0914602F091470280819181AF
:100FD000081719072CF3FF2009F48ECF00E010E06A
:100FE000EF2CFF2424C0C701002E02C095958795E1
:100FF0000A94E2F780FF19C08091690284FF15C04E
:10100000602F6F5F0088F189E02D88E492E00995F8
:10101000682F88E492E00E94380603C00E941F05F2
:10102000A8958091690284FFF9CF0F5F1F4FE0916F
:101030004602F091470280819181081719079CF2BE
:101040005ACF84B1837F84B9259A85B18C6285B9E2
:10105000579A5F9887B1837F87B988B1837F88B9B2
:1010600087B18C7F87B988B18C7F88B9E1E8F0E0DF
:1010700080818460808310929A02109299028091FC
:10108000990290919A029093960280939502109201
:101090009C0210929B0280919B0290919C029093E3
:1010A00098028093970210925D0210925C0280E099
:1010B00008951F9383B18C7080935C0210929C0200
:1010C00010929B0280919B0290919C0290939A02B5
:1010D0008093990220E030E0A1E0B0E018EC69E3F1
:1010E00073E0A89587B1AD01022E02C0440F551FD1
:1010F0000A94E2F7942F842B87B9812F8A95F1F710
:1011000087B19095982397B910928500109284002A
:10111000B09A86B190E084239523892B11F4B09B7B
:10112000F8CF8091840090918500F901EE0FFF1FA8
:10113000E756FD4F91838083B09B02C0718360832B
:101140002F5F3F4F2230310561F61F910895909136
:101150005C0280915D029817C1F420919502309154
:1011600096028091990290919A022817390769F4A2
:10117000209197023091980280919B0290919C025D
:1011800040E050E02817390711F041E050E0842F8B
:101190000895EF92FF920F931F93CF93DF93EC018B
:1011A000009709F44CC06091990270919A0280E016
:1011B00090E00E94FD0220E030E040ED50E40E940B
:1011C000FD010E94A9027B018C0160919B0270913C
:1011D0009C0280E090E00E94FD0220E030E040EDC3
:1011E00050E40E94FD010E94A902A701F7FE02C07F
:1011F00040E050E09B0177FF02C020E030E06091CA
:101200005C026095CA014F3F510519F014F08FEF51
:1012100090E0809588832F3F310519F014F02FEF6F
:1012200030E0822F809589831A82962F62FF02C058
:1012300081E08A8393FF03C08A8182608A838091E0
:101240005C0280935D028091990290919A02909342
:1012500096028093950280919B0290919C029093BC
:1012600098028093970283E0DF91CF911F910F91B5
:10127000FF90EF9008958AEC90E090933102809374
:10128000300283E091E090933502809334028CE247
:1012900092E008952F923F924F925F926F927F92C9
:1012A0008F929F92AF92BF92CF92DF92EF92FF9276
:1012B0000F931F93CF93DF93CDB7DEB7CA1BDB0B22
:1012C0000FB6F894DEBF0FBECDBF09942A883988C7
:1012D00048885F846E847D848C849B84AA84B984CE
:1012E000C884DF80EE80FD800C811B81AA81B981DA
:1012F000CE0FD11D0FB6F894DEBF0FBECDBFED01EE
:061300000895F894FFCFF0
:1013060000000000000000000001020203030303C6
:10131600040404040404040405050505050505057F
:10132600050505050505050506060606060606065F
:101336000606060606060606060606060606060647
:10134600060606060606060607070707070707072F
:101356000707070707070707070707070707070717
:101366000707070707070707070707070707070707
:1013760007070707070707070707070707070707F7
:1013860007070707070707070808080808080808DF
:1013960008080808080808080808080808080808C7
:1013A60008080808080808080808080808080808B7
:1013B60008080808080808080808080808080808A7
:1013C6000808080808080808080808080808080897
:1013D6000808080808080808080808080808080887
:1013E6000808080808080808080808080808080877
:1013F6000808080808080808080808080808080867
:1014060008080808080808085AFF0902220001010E
:101416000000320904000001030000000921100148
:1014260021012200000705810308000A0100390096
:0E14360000001200000021085908A708C9088C
:1070000071C00000A4C0000088C0000086C000005D
:1070100084C0000082C0000080C000007EC000006C
:107020007CC000007AC0000078C0000076C000007C
:1070300074C0000072C0000070C000006EC000008C
:107040006CC000006AC0000068C0000066C000009C
:1070500064C0000062C0000060C000005EC00000AC
:107060005CC000005AC000000403090412036F0052
:1070700062006400650076002E0061007400100359
:1070800048004900440042006F006F007400120184
:10709000100100000008C016DF0500010102000118
:1070A00009022200010100803209040000010300EE
:1070B00000000921010100012221000705810308C8
:1070C00000C80600FF0901A101150026FF00750890
:1070D000850195060900B20201850295830900B277
:1070E0000201C00011241FBECFEFD8E0DEBFCDBF2C
:1070F00011E0A0E0B1E0E0E5F7E702C005900D92F5
:10710000AA30B107D9F711E0AAE0B1E001C01D92A1
:10711000AB33B107E1F763D119C372CFA82FB92FF1
:1071200080E090E041E050EA609530E009C02D91A8
:1071300082279795879510F084279527305EC8F3AE
:107140006F5FA8F30895EADF8D939D930895CF9321
:10715000CFB7CF93C395489BE9F7489B09C0489B9D
:1071600007C0489B05C0489B03C0489B01C0A3C003
:10717000DF93C0911E01DD27CB5DDE4F489B02C02F
:10718000DF91EBCF2F930F931F9309B12FEF00FBEC
:1071900020F94F933F9319B14FEF012700FB21F9DD
:1071A0003BE031C04E7F012F19B1216028C0102F64
:1071B0004D7F2260000009B129C04B7F2460012F60
:1071C000000019B12BC019B1477F28602AC04F7E3B
:1071D00009B120612CC04F7D19B120622FC04F7BB7
:1071E00009B1206432C0422709B149934FEF000032
:1071F000102710FB20F919B11570C9F1297F91F200
:10720000012700FB21F909B1237F89F2315058F1A0
:10721000102710FB22F919B1277E79F2012700FB14
:1072200023F92F7C81F209B1102710FB24F92F7963
:1072300071F200C019B1012700FB25F92F7359F233
:1072400000C009B1102710FB26F9223040F200C01F
:1072500019B1012700FB27F9243028F64F77206861
:1072600019B10000F9CF11E01CBB002719C03B5039
:107270003195C31BD04011E01CBB0881033CF9F0E1
:107280000B34E9F020911C011981110F1213EDCF7D
:107290004A81441F093641F10D3211F0013E29F7B0
:1072A000009323013F914F911F910F912F91DF91F7
:1072B000CCB3C0FD4FCFCF91CFBFCF9118952091C8
:1072C0002301222379F310912101112321F5343078
:1072D00022F13093210120931D0110911E013BE00A
:1072E000311B30931E0119C00091210101309CF423
:1072F0000AE54F7081F43091000134FD10C0009315
:107300000001C1E1D1E00FC02795A8F45150A9F4C4
:10731000220F0000F9CF4AE503C042ED01C0432F20
:10732000C4E1D0E032E01AB11560589A1AB90BB135
:1073300020E415E05F93012756E00BB9279520F470
:10734000515021F4220FF9CF012756E000003B5A9B
:107350000BB9D0F2279528F4515029F4220F0000E0
:10736000F9CF012756E027950BB920F4515021F4AD
:10737000220FF9CF012756E0299133230BB921F6CB
:107380000A7F10912201110FC651D0400BB911F0A4
:1073900010931C0111E01CBB01601AB11A7F402F31
:1073A0004A7F5F9100C000C00BB91AB94BB97ACFC0
:1073B00014B88FEF85B917B888B9579A5F9888EED7
:1073C00093E0ECE2F1E03197F1F70197D1F70895FE
:1073D00083B190E08F3209F491E0892F08952FE076
:1073E00088E190E00FB6F894A895809360000FBEF6
:1073F00020936000DDDFECDF882341F480913B01C6
:1074000090913C018F5E9E4B09F08EC181E085BF5B
:1074100082E085BF80916900836080936900E89A6B
:10742000509A20E0A89588EB9BE00197F1F7215056
:10743000C9F750987894A89590912101392F33502D
:1074400037FD19C180911E01ACE0B0E0A81BB10965
:10745000AB5DBE4F80911D018D3209F0BDC038304B
:1074600009F007C183EC809311018AE58093000144
:1074700010920A012C91822F807611969C9111977F
:107480008823E1F0993079F412968C91129782302A
:1074900031F410920D0127FD8CC09FEF8CC081E06C
:1074A00080930E0151C1913009F04EC182E091E00C
:1074B0009093200180931F0127E081C012968C9148
:1074C000129710921A01992331F410921B018AE14C
:1074D00091E022E069C0953019F48093220161C0E7
:1074E000963009F04EC013968C911397813019F4A1
:1074F0008EE890E71DC0823041F480EA90E79093D7
:10750000200180931F0122E238C0833009F51296D2
:107510008C911297882341F488E690E7909320019C
:1075200080931F0124E029C0813041F48CE690E76C
:107530009093200180931F0122E11FC08230E1F46B
:107540008EE790E79093200180931F0120E115C002
:10755000813241F482EB90E79093200180931F01E8
:1075600029E00BC0823241F482EC90E79093200135
:1075700080931F0121E201C020E080E480930A0192
:107580001EC0983019F484E291E009C0993019F4D2
:107590008093240106C09A3021F48AE191E021E031
:1075A00003C08AE191E020E09093200180931F01C5
:1075B00006C016969C9180E880930A010AC017962F
:1075C0008C911797882321F416969C91921708F0B6
:1075D000922F909301014DC080910A0187FF49C00D
:1075E000C0910B01D0910C0180910D01882349F4C9
:1075F0001196CC9111971296DC9112971496392F0F
:107600003750632F680F60930D01AE014F7751F42F
:10761000F89483E0FE0180935700E895789407B6CC
:1076200000FCFDCFF894AE018D919C91119721E063
:10763000FE010C0120935700E895112478942296BE
:10764000FE01EF7751F4F89485E0FA01809357003A
:10765000E895789407B600FCFDCF325011F01296F1
:10766000D4CFD0930C01C0930B0167FF02C01092DE
:107670000101109221018091000184FF3CC08091A2
:1076800001018F3FC1F1182F893008F018E0811BEC
:10769000809301018091110198E88927809311015D
:1076A0001123E1F0E0911F01F091200180910A0186
:1076B00086FF09C0912FA2E1B1E084918D933196AC
:1076C0009150D9F707C0912FA2E1B1E081918D933C
:1076D0009150E1F7F0932001E0931F0182E191E0E6
:1076E000612F31DD612F6C5F6C3019F08FEF80936B
:1076F00001016093000194E189B1857031F49150EA
:10770000D9F71092220110921C0180910E0188235A
:1077100009F491CE80E395E70197F1F78FEF9FEFA2
:1077200090933C0180933B01F89481E18093570052
:10773000E8951DBA1092690081E085BF15BEE09101
:107740000F01F0911001099520E039CFF894FFCF97
:0A7750005AFF0180000080000000D5
:00000001FF
