:100000000C9499000C94D1000C94B6000C948E03BF
:100010000C94B6000C94B6000C94B6000C94B60088
:100020000C94B6000C94B6000C94B6000C94B60078
:100030000C94B6000C94B6000C94B6000C94B60068
:100040000C94B6000C94B6000C94B6000C94B60058
:100050000C94B6000C94B6000C94B6000C94B60048
:100060000C94B6000C94B600040309042603720035
:100070006500740072006F006E0069006300640028
:1000800065007300690067006E002E0063006F005A
:100090006D002A03410074006100720069002000B5
:1000A00054007200610063006B00620061006C002C
:1000B0006C002000760033002E0033001201100186
:1000C00000000008C016DA27000101020001090241
:1000D0002200010100800A09040000010300000061
:1000E0000921010100012242000705810308006483
:1000F00005010902A1010901A1000509190129034E
:10010000150025019503750181029501750581038F
:1001100005010930093109381581257F75089503D6
:1001200081060900150026FF0075089501B202013D
:10013000C0C011241FBECFEFD8E0DEBFCDBF11E09D
:10014000A0E0B1E0E8E6F8E002C005900D92A23030
:10015000B107D9F711E0A2E0B1E001C01D92A334CC
:10016000B107E1F70E94C4030C9432040C94000020
:10017000A82FB92F80E090E041E050EA609530E090
:1001800009C02D9182279795879510F08427952790
:10019000305EC8F36F5FA8F30895EADF8D939D93F7
:1001A0000895CF93CFB7CF93C395489BE9F7489B6A
:1001B00009C0489B07C0489B05C0489B03C0489B9B
:1001C00001C0A3C0DF93C0912501DD27C45DDE4FD0
:1001D000489B02C0DF91EBCF2F930F931F9309B180
:1001E0002FEF00FB20F94F933F9319B14FEF0127F9
:1001F00000FB21F93BE031C04E7F012F19B1216096
:1002000028C0102F4D7F2260000009B129C04B7F0C
:100210002460012F000019B12BC019B1477F28605D
:100220002AC04F7E09B120612CC04F7D19B12062D8
:100230002FC04F7B09B1206432C0422709B14993D6
:100240004FEF0000102710FB20F919B11570C9F10C
:10025000297F91F2012700FB21F909B1237F89F25F
:10026000315058F1102710FB22F919B1277E79F28D
:10027000012700FB23F92F7C81F209B1102710FB25
:1002800024F92F7971F200C019B1012700FB25F97B
:100290002F7359F200C009B1102710FB26F9223044
:1002A00040F200C019B1012700FB27F9243028F6DD
:1002B0004F77206819B10000F9CF11E01CBB00276F
:1002C00019C03B503195C31BD04011E01CBB0881C5
:1002D000033CF9F00B34E9F0209123011981110F4F
:1002E0001213EDCF4A81441F093641F10D3211F04E
:1002F000013E29F700932A013F914F911F910F91E1
:100300002F91DF91CCB3C0FD4FCFCF91CFBFCF9115
:10031000189520912A01222379F3109128011123A5
:1003200069F534306AF1309328012093240110914B
:1003300025013BE0311B3093250122C000912801AB
:100340000130E4F40AE54F7049F43091000134FDC6
:1003500019C000930001CCE0D1E018C03091170122
:1003600034FD10C000931701C8E1D1E00FC02795FC
:10037000A8F45150A9F4220F0000F9CF4AE503C0B8
:1003800042ED01C0432FC4E1D0E032E01AB1156064
:10039000589A1AB90BB120E415E05F93012756E093
:1003A0000BB9279520F4515021F4220FF9CF0127E2
:1003B00056E000003B5A0BB9D0F2279528F4515073
:1003C00029F4220F0000F9CF012756E027950BB939
:1003D00020F4515021F4220FF9CF012756E0299142
:1003E00033230BB921F60A7F10912901110FC65151
:1003F000D0400BB911F01093230111E01CBB016038
:100400001AB11A7F402F4A7F5F9100C000C00BB91C
:100410001AB94BB971CFE9E6F0E080818260808340
:10042000E89A8BE4809318018AE580931701089578
:100430001F93CF93DF9360912801635067FDC4C081
:1004400080912501CCE0D0E0C81BD109C45DDE4F0E
:10045000809124018D3209F0A4C0683009F0B2C047
:1004600083EC80930C018AE58093000110920201D5
:100470008881807641F0CE010E945E03282F8F3F55
:1004800009F47EC084C09A81109215018981882365
:1004900021F41092160122E06CC0853019F490937B
:1004A000290166C0863009F04FC08B81813041F44C
:1004B0008CEB90E0909327018093260122E140C0CD
:1004C000823041F48EEC90E09093270180932601D6
:1004D00022E236C08330F9F48A81882341F488E629
:1004E00090E0909327018093260124E029C0813079
:1004F00041F48CE690E0909327018093260126E258
:100500001FC08230E1F482E990E09093270180934C
:1005100026012AE215C0813241F480EE90E09093EA
:1005200027018093260129E00BC0823241F480EF3D
:1005300090E0909327018093260122E401C020E0FF
:1005400080E48093020123C0883021F421E08BE213
:1005500091E011C0893019F490932B0109C08A30C1
:1005600011F421E006C08B3019F48BE4809318015C
:1005700020E085E191E0909327018093260107C058
:10058000888187FD2E8180E88093020106C08F81DB
:10059000882319F48E81821708F0822F809301013D
:1005A00011C08091020187FF0DC0CE010E9485031A
:1005B0008F3F21F48EE18093000104C0882311F065
:1005C00010920101109228018091000184FF46C021
:1005D000809101018F3F09F441C0182F893008F044
:1005E00018E0811B8093010180910C0198E8892714
:1005F00080930C01112321F12091260130912701D4
:100600008091020186FF0AC0912FF901ADE0B1E0AF
:1006100084918D9331969150D9F708C0912FD901CB
:10062000EDE0F1E08D9181939150E1F7C9010196E0
:100630001150810F911D1F5F909327018093260118
:100640008DE091E0612F0E94CD00612F6C5F6C30D6
:1006500019F08FEF809301016093000194E189B15B
:10066000857031F49150D9F710922901109223012D
:10067000DF91CF911F9108951F93DC01162F809178
:10068000170184FF07C08091180198E8892780939B
:10069000180103C08AE580931701912FE9E1F1E089
:1006A0008D9181939150E1F789E191E0612F0E9452
:1006B000CD001C5F109317011F910895FC018081EC
:1006C0008076803201F58181813041F487E091E0CC
:1006D000909327018093260184E00895893011F4D6
:1006E0008FEF0895823041F48BE091E090932701E1
:1006F0008093260181E008958A3029F483818093D4
:100700000B0180E0089580E00895FC0180818A3526
:1007100019F481E080934201862F08951F920F9271
:100720000FB60F9211242F933F934F935F938F93A4
:100730009F9393B1909590930301492F50E080913E
:100740000401282F30E02427352721FF07C091FD21
:1007500005C08091050181508093050123FF07C0EA
:1007600043FD05C0809106018F5F80930601909341
:1007700004019F918F915F914F913F912F910F9025
:100780000FBE0F901F9018952FE088E190E00FB6F4
:10079000F894A895809360000FBE2093600010929B
:1007A000420184B1807E84B985B18F6185B987B1FA
:1007B000807F87B988B1807F88B9259A2D9A579A0A
:1007C0005F988091680081608093680080916B00E1
:1007D0008A6180936B00109206011092050183B12B
:1007E000809580930301809304010E940B02509A2C
:1007F00080E395E70197F1F750987894A895809158
:100800004201882359F0F8948FEE9EEB90933C01BF
:1008100080933B018AB185608AB9FFCF0E9418029C
:100820008091170184FFEACF809105018093080130
:100830001092050180910601809309011092060132
:100840008091030190E08071907024E095958795E8
:100850002A95E1F78093070187E091E064E00E9428
:080860003C03CCCFF894FFCF5C
:020868005AFF35
:1070000071C00000A4C0000088C0000086C000005D
:1070100084C0000082C0000080C000007EC000006C
:107020007CC000007AC0000078C0000076C000007C
:1070300074C0000072C0000070C000006EC000008C
:107040006CC000006AC0000068C0000066C000009C
:1070500064C0000062C0000060C000005EC00000AC
:107060005CC000005AC000000403090412036F0052
:1070700062006400650076002E0061007400100359
:1070800048004900440042006F006F007400120184
:10709000100100000008C016DF0500010102000118
:1070A00009022200010100803209040000010300EE
:1070B00000000921010100012221000705810308C8
:1070C00000C80600FF0901A101150026FF00750890
:1070D000850195060900B20201850295830900B277
:1070E0000201C00011241FBECFEFD8E0DEBFCDBF2C
:1070F00011E0A0E0B1E0E0E5F7E702C005900D92F5
:10710000AA30B107D9F711E0AAE0B1E001C01D92A1
:10711000AB33B107E1F763D119C372CFA82FB92FF1
:1071200080E090E041E050EA609530E009C02D91A8
:1071300082279795879510F084279527305EC8F3AE
:107140006F5FA8F30895EADF8D939D930895CF9321
:10715000CFB7CF93C395489BE9F7489B09C0489B9D
:1071600007C0489B05C0489B03C0489B01C0A3C003
:10717000DF93C0911E01DD27CB5DDE4F489B02C02F
:10718000DF91EBCF2F930F931F9309B12FEF00FBEC
:1071900020F94F933F9319B14FEF012700FB21F9DD
:1071A0003BE031C04E7F012F19B1216028C0102F64
:1071B0004D7F2260000009B129C04B7F2460012F60
:1071C000000019B12BC019B1477F28602AC04F7E3B
:1071D00009B120612CC04F7D19B120622FC04F7BB7
:1071E00009B1206432C0422709B149934FEF000032
:1071F000102710FB20F919B11570C9F1297F91F200
:10720000012700FB21F909B1237F89F2315058F1A0
:10721000102710FB22F919B1277E79F2012700FB14
:1072200023F92F7C81F209B1102710FB24F92F7963
:1072300071F200C019B1012700FB25F92F7359F233
:1072400000C009B1102710FB26F9223040F200C01F
:1072500019B1012700FB27F9243028F64F77206861
:1072600019B10000F9CF11E01CBB002719C03B5039
:107270003195C31BD04011E01CBB0881033CF9F0E1
:107280000B34E9F020911C011981110F1213EDCF7D
:107290004A81441F093641F10D3211F0013E29F7B0
:1072A000009323013F914F911F910F912F91DF91F7
:1072B000CCB3C0FD4FCFCF91CFBFCF9118952091C8
:1072C0002301222379F310912101112321F5343078
:1072D00022F13093210120931D0110911E013BE00A
:1072E000311B30931E0119C00091210101309CF423
:1072F0000AE54F7081F43091000134FD10C0009315
:107300000001C1E1D1E00FC02795A8F45150A9F4C4
:10731000220F0000F9CF4AE503C042ED01C0432F20
:10732000C4E1D0E032E01AB11560589A1AB90BB135
:1073300020E415E05F93012756E00BB9279520F470
:10734000515021F4220FF9CF012756E000003B5A9B
:107350000BB9D0F2279528F4515029F4220F0000E0
:10736000F9CF012756E027950BB920F4515021F4AD
:10737000220FF9CF012756E0299133230BB921F6CB
:107380000A7F10912201110FC651D0400BB911F0A4
:1073900010931C0111E01CBB01601AB11A7F402F31
:1073A0004A7F5F9100C000C00BB91AB94BB97ACFC0
:1073B00014B88FEF85B917B888B9579A5F9888EED7
:1073C00093E0ECE2F1E03197F1F70197D1F70895FE
:1073D00083B190E08F3209F491E0892F08952FE076
:1073E00088E190E00FB6F894A895809360000FBEF6
:1073F00020936000DDDFECDF882341F480913B01C6
:1074000090913C018F5E9E4B09F08EC181E085BF5B
:1074100082E085BF80916900836080936900E89A6B
:10742000509A20E0A89588EB9BE00197F1F7215056
:10743000C9F750987894A89590912101392F33502D
:1074400037FD19C180911E01ACE0B0E0A81BB10965
:10745000AB5DBE4F80911D018D3209F0BDC038304B
:1074600009F007C183EC809311018AE58093000144
:1074700010920A012C91822F807611969C9111977F
:107480008823E1F0993079F412968C91129782302A
:1074900031F410920D0127FD8CC09FEF8CC081E06C
:1074A00080930E0151C1913009F04EC182E091E00C
:1074B0009093200180931F0127E081C012968C9148
:1074C000129710921A01992331F410921B018AE14C
:1074D00091E022E069C0953019F48093220161C0E7
:1074E000963009F04EC013968C911397813019F4A1
:1074F0008EE890E71DC0823041F480EA90E79093D7
:10750000200180931F0122E238C0833009F51296D2
:107510008C911297882341F488E690E7909320019C
:1075200080931F0124E029C0813041F48CE690E76C
:107530009093200180931F0122E11FC08230E1F46B
:107540008EE790E79093200180931F0120E115C002
:10755000813241F482EB90E79093200180931F01E8
:1075600029E00BC0823241F482EC90E79093200135
:1075700080931F0121E201C020E080E480930A0192
:107580001EC0983019F484E291E009C0993019F4D2
:107590008093240106C09A3021F48AE191E021E031
:1075A00003C08AE191E020E09093200180931F01C5
:1075B00006C016969C9180E880930A010AC017962F
:1075C0008C911797882321F416969C91921708F0B6
:1075D000922F909301014DC080910A0187FF49C00D
:1075E000C0910B01D0910C0180910D01882349F4C9
:1075F0001196CC9111971296DC9112971496392F0F
:107600003750632F680F60930D01AE014F7751F42F
:10761000F89483E0FE0180935700E895789407B6CC
:1076200000FCFDCFF894AE018D919C91119721E063
:10763000FE010C0120935700E895112478942296BE
:10764000FE01EF7751F4F89485E0FA01809357003A
:10765000E895789407B600FCFDCF325011F01296F1
:10766000D4CFD0930C01C0930B0167FF02C01092DE
:107670000101109221018091000184FF3CC08091A2
:1076800001018F3FC1F1182F893008F018E0811BEC
:10769000809301018091110198E88927809311015D
:1076A0001123E1F0E0911F01F091200180910A0186
:1076B00086FF09C0912FA2E1B1E084918D933196AC
:1076C0009150D9F707C0912FA2E1B1E081918D933C
:1076D0009150E1F7F0932001E0931F0182E191E0E6
:1076E000612F31DD612F6C5F6C3019F08FEF80936B
:1076F00001016093000194E189B1857031F49150EA
:10770000D9F71092220110921C0180910E0188235A
:1077100009F491CE80E395E70197F1F78FEF9FEFA2
:1077200090933C0180933B01F89481E18093570052
:10773000E8951DBA1092690081E085BF15BEE09101
:107740000F01F0911001099520E039CFF894FFCF97
:0A7750005AFF0180000080000000D5
:00000001FF
